{
  "_format": "hh-sol-artifact-1",
  "contractName": "RugDistributor",
  "sourceName": "contracts/RugDistributor.sol",
  "abi": [
    {
      "inputs": [
        {
          "internalType": "address",
          "name": "_nftContract",
          "type": "address"
        },
        {
          "internalType": "address",
          "name": "_pcToken",
          "type": "address"
        },
        {
          "internalType": "address",
          "name": "_zorToken",
          "type": "address"
        }
      ],
      "stateMutability": "nonpayable",
      "type": "constructor"
    },
    {
      "inputs": [
        {
          "internalType": "address",
          "name": "owner",
          "type": "address"
        }
      ],
      "name": "OwnableInvalidOwner",
      "type": "error"
    },
    {
      "inputs": [
        {
          "internalType": "address",
          "name": "account",
          "type": "address"
        }
      ],
      "name": "OwnableUnauthorizedAccount",
      "type": "error"
    },
    {
      "inputs": [
        {
          "internalType": "address",
          "name": "token",
          "type": "address"
        }
      ],
      "name": "SafeERC20FailedOperation",
      "type": "error"
    },
    {
      "anonymous": false,
      "inputs": [
        {
          "indexed": false,
          "internalType": "bool",
          "name": "isMaintaining",
          "type": "bool"
        }
      ],
      "name": "MaintenanceUpdated",
      "type": "event"
    },
    {
      "anonymous": false,
      "inputs": [
        {
          "indexed": true,
          "internalType": "address",
          "name": "owner",
          "type": "address"
        },
        {
          "indexed": false,
          "internalType": "uint256",
          "name": "token",
          "type": "uint256"
        }
      ],
      "name": "Mint",
      "type": "event"
    },
    {
      "anonymous": false,
      "inputs": [
        {
          "indexed": false,
          "internalType": "uint256",
          "name": "newCap",
          "type": "uint256"
        }
      ],
      "name": "MintingCapUpdated",
      "type": "event"
    },
    {
      "anonymous": false,
      "inputs": [
        {
          "indexed": true,
          "internalType": "address",
          "name": "moderator",
          "type": "address"
        }
      ],
      "name": "ModeratorAdded",
      "type": "event"
    },
    {
      "anonymous": false,
      "inputs": [
        {
          "indexed": true,
          "internalType": "address",
          "name": "moderator",
          "type": "address"
        }
      ],
      "name": "ModeratorRemoved",
      "type": "event"
    },
    {
      "anonymous": false,
      "inputs": [
        {
          "indexed": true,
          "internalType": "address",
          "name": "previousOwner",
          "type": "address"
        },
        {
          "indexed": true,
          "internalType": "address",
          "name": "newOwner",
          "type": "address"
        }
      ],
      "name": "OwnershipTransferred",
      "type": "event"
    },
    {
      "anonymous": false,
      "inputs": [
        {
          "indexed": true,
          "internalType": "address",
          "name": "owner",
          "type": "address"
        },
        {
          "indexed": false,
          "internalType": "uint256",
          "name": "amount",
          "type": "uint256"
        }
      ],
      "name": "ZORRewarded",
      "type": "event"
    },
    {
      "stateMutability": "payable",
      "type": "fallback"
    },
    {
      "inputs": [],
      "name": "ERC20_PRICE_NFT",
      "outputs": [
        {
          "internalType": "uint256",
          "name": "",
          "type": "uint256"
        }
      ],
      "stateMutability": "view",
      "type": "function"
    },
    {
      "inputs": [],
      "name": "MINTING_CAP",
      "outputs": [
        {
          "internalType": "uint256",
          "name": "",
          "type": "uint256"
        }
      ],
      "stateMutability": "view",
      "type": "function"
    },
    {
      "inputs": [],
      "name": "ZOR_REWARD_AMOUNT",
      "outputs": [
        {
          "internalType": "uint256",
          "name": "",
          "type": "uint256"
        }
      ],
      "stateMutability": "view",
      "type": "function"
    },
    {
      "inputs": [
        {
          "internalType": "address",
          "name": "_newModerator",
          "type": "address"
        }
      ],
      "name": "addModerator",
      "outputs": [],
      "stateMutability": "nonpayable",
      "type": "function"
    },
    {
      "inputs": [
        {
          "internalType": "uint256",
          "name": "_amount",
          "type": "uint256"
        }
      ],
      "name": "adminWithdrawERC20",
      "outputs": [],
      "stateMutability": "nonpayable",
      "type": "function"
    },
    {
      "inputs": [
        {
          "internalType": "uint256",
          "name": "_amount",
          "type": "uint256"
        }
      ],
      "name": "adminWithdrawZOR",
      "outputs": [],
      "stateMutability": "nonpayable",
      "type": "function"
    },
    {
      "inputs": [],
      "name": "erc20Mint",
      "outputs": [
        {
          "internalType": "bool",
          "name": "",
          "type": "bool"
        }
      ],
      "stateMutability": "nonpayable",
      "type": "function"
    },
    {
      "inputs": [],
      "name": "isMaintaining",
      "outputs": [
        {
          "internalType": "bool",
          "name": "",
          "type": "bool"
        }
      ],
      "stateMutability": "view",
      "type": "function"
    },
    {
      "inputs": [],
      "name": "mintingPaused",
      "outputs": [
        {
          "internalType": "bool",
          "name": "",
          "type": "bool"
        }
      ],
      "stateMutability": "view",
      "type": "function"
    },
    {
      "inputs": [
        {
          "internalType": "address",
          "name": "",
          "type": "address"
        }
      ],
      "name": "moderators",
      "outputs": [
        {
          "internalType": "bool",
          "name": "",
          "type": "bool"
        }
      ],
      "stateMutability": "view",
      "type": "function"
    },
    {
      "inputs": [],
      "name": "nftContract",
      "outputs": [
        {
          "internalType": "contract Rug",
          "name": "",
          "type": "address"
        }
      ],
      "stateMutability": "view",
      "type": "function"
    },
    {
      "inputs": [],
      "name": "owner",
      "outputs": [
        {
          "internalType": "address",
          "name": "",
          "type": "address"
        }
      ],
      "stateMutability": "view",
      "type": "function"
    },
    {
      "inputs": [],
      "name": "pcToken",
      "outputs": [
        {
          "internalType": "contract IERC20",
          "name": "",
          "type": "address"
        }
      ],
      "stateMutability": "view",
      "type": "function"
    },
    {
      "inputs": [
        {
          "internalType": "address",
          "name": "_moderator",
          "type": "address"
        }
      ],
      "name": "removeModerator",
      "outputs": [],
      "stateMutability": "nonpayable",
      "type": "function"
    },
    {
      "inputs": [],
      "name": "renounceOwnership",
      "outputs": [],
      "stateMutability": "nonpayable",
      "type": "function"
    },
    {
      "inputs": [
        {
          "internalType": "address",
          "name": "_nftContract",
          "type": "address"
        }
      ],
      "name": "setContracts",
      "outputs": [],
      "stateMutability": "nonpayable",
      "type": "function"
    },
    {
      "inputs": [],
      "name": "togglePause",
      "outputs": [],
      "stateMutability": "nonpayable",
      "type": "function"
    },
    {
      "inputs": [],
      "name": "totalModerators",
      "outputs": [
        {
          "internalType": "uint16",
          "name": "",
          "type": "uint16"
        }
      ],
      "stateMutability": "view",
      "type": "function"
    },
    {
      "inputs": [
        {
          "internalType": "address",
          "name": "newOwner",
          "type": "address"
        }
      ],
      "name": "transferOwnership",
      "outputs": [],
      "stateMutability": "nonpayable",
      "type": "function"
    },
    {
      "inputs": [
        {
          "internalType": "bool",
          "name": "_isMaintaining",
          "type": "bool"
        }
      ],
      "name": "updateMaintaining",
      "outputs": [],
      "stateMutability": "nonpayable",
      "type": "function"
    },
    {
      "inputs": [
        {
          "internalType": "uint256",
          "name": "_newCap",
          "type": "uint256"
        }
      ],
      "name": "updateMintingCap",
      "outputs": [],
      "stateMutability": "nonpayable",
      "type": "function"
    },
    {
      "inputs": [],
      "name": "withdrawETH",
      "outputs": [],
      "stateMutability": "nonpayable",
      "type": "function"
    },
    {
      "inputs": [],
      "name": "zorToken",
      "outputs": [
        {
          "internalType": "contract IERC20",
          "name": "",
          "type": "address"
        }
      ],
      "stateMutability": "view",
      "type": "function"
    },
    {
      "stateMutability": "payable",
      "type": "receive"
    }
  ],
  "bytecode": "0x60c060405260008060146101000a81548161ffff021916908361ffff1602179055506000600260006101000a81548160ff0219169083151502179055506103e86003556000600460006101000a81548160ff02191690831515021790555060006005556040518060600160405280600260ff168152602001600160ff168152602001600160ff16815250600690600361009992919061040d565b503480156100a657600080fd5b50604051612db9380380612db983398181016040528101906100c891906104df565b33600073ffffffffffffffffffffffffffffffffffffffff168173ffffffffffffffffffffffffffffffffffffffff160361013b5760006040517f1e4fbdf70000000000000000000000000000000000000000000000000000000081526004016101329190610541565b60405180910390fd5b61014a8161034960201b60201c565b50600073ffffffffffffffffffffffffffffffffffffffff168373ffffffffffffffffffffffffffffffffffffffff16036101ba576040517f08c379a00000000000000000000000000000000000000000000000000000000081526004016101b1906105b9565b60405180910390fd5b600073ffffffffffffffffffffffffffffffffffffffff168273ffffffffffffffffffffffffffffffffffffffff1603610229576040517f08c379a000000000000000000000000000000000000000000000000000000000815260040161022090610625565b60405180910390fd5b600073ffffffffffffffffffffffffffffffffffffffff168173ffffffffffffffffffffffffffffffffffffffff1603610298576040517f08c379a000000000000000000000000000000000000000000000000000000000815260040161028f90610691565b60405180910390fd5b82600260016101000a81548173ffffffffffffffffffffffffffffffffffffffff021916908373ffffffffffffffffffffffffffffffffffffffff1602179055508173ffffffffffffffffffffffffffffffffffffffff1660808173ffffffffffffffffffffffffffffffffffffffff16815250508073ffffffffffffffffffffffffffffffffffffffff1660a08173ffffffffffffffffffffffffffffffffffffffff16815250505050506106b1565b60008060009054906101000a900473ffffffffffffffffffffffffffffffffffffffff169050816000806101000a81548173ffffffffffffffffffffffffffffffffffffffff021916908373ffffffffffffffffffffffffffffffffffffffff1602179055508173ffffffffffffffffffffffffffffffffffffffff168173ffffffffffffffffffffffffffffffffffffffff167f8be0079c531659141344cd1fd0a4f28419497f9722a3daafe3b4186f6b6457e060405160405180910390a35050565b82805482825590600052602060002090810192821561044e579160200282015b8281111561044d578251829060ff1690559160200191906001019061042d565b5b50905061045b919061045f565b5090565b5b80821115610478576000816000905550600101610460565b5090565b600080fd5b600073ffffffffffffffffffffffffffffffffffffffff82169050919050565b60006104ac82610481565b9050919050565b6104bc816104a1565b81146104c757600080fd5b50565b6000815190506104d9816104b3565b92915050565b6000806000606084860312156104f8576104f761047c565b5b6000610506868287016104ca565b9350506020610517868287016104ca565b9250506040610528868287016104ca565b9150509250925092565b61053b816104a1565b82525050565b60006020820190506105566000830184610532565b92915050565b600082825260208201905092915050565b7f496e76616c6964204e465420636f6e7472616374206164647265737300000000600082015250565b60006105a3601c8361055c565b91506105ae8261056d565b602082019050919050565b600060208201905081810360008301526105d281610596565b9050919050565b7f496e76616c696420504320746f6b656e20616464726573730000000000000000600082015250565b600061060f60188361055c565b915061061a826105d9565b602082019050919050565b6000602082019050818103600083015261063e81610602565b9050919050565b7f496e76616c6964205a4f5220746f6b656e206164647265737300000000000000600082015250565b600061067b60198361055c565b915061068682610645565b602082019050919050565b600060208201905081810360008301526106aa8161066e565b9050919050565b60805160a0516126a461071560003960008181610ce201528181610dc201528181610e0b01528181611646015261172f0152600081816105ec0152818161081f015281816108ff0152818161125a0152818161133d015261142701526126a46000f3fe6080604052600436106101445760003560e01c8063b532e4cb116100b6578063e086e5ec1161006f578063e086e5ec14610400578063e1a283d614610417578063ee4e441614610442578063f2fde38b1461046d578063f895570a14610496578063f9702302146104bf57610145565b8063b532e4cb14610318578063c4ae316814610341578063d32ca9d214610358578063d56d229d14610381578063d9cc9316146103ac578063da9778b4146103d557610145565b80636bad9d37116101085780636bad9d371461022e578063715018a6146102595780637c39705b14610270578063869d785f1461029b57806388cd5381146102c45780638da5cb5b146102ed57610145565b806314d0f1ba146101475780632a87356b146101845780634efb023e146101af5780635a2e2f47146101da5780635ada32761461020357610145565b5b005b34801561015357600080fd5b5061016e60048036038101906101699190611b90565b6104ea565b60405161017b9190611bd8565b60405180910390f35b34801561019057600080fd5b5061019961050a565b6040516101a69190611c0c565b60405180910390f35b3480156101bb57600080fd5b506101c4610510565b6040516101d19190611c44565b60405180910390f35b3480156101e657600080fd5b5061020160048036038101906101fc9190611b90565b610524565b005b34801561020f57600080fd5b506102186105df565b6040516102259190611c0c565b60405180910390f35b34801561023a57600080fd5b506102436105ea565b6040516102509190611cbe565b60405180910390f35b34801561026557600080fd5b5061026e61060e565b005b34801561027c57600080fd5b50610285610622565b6040516102929190611c0c565b60405180910390f35b3480156102a757600080fd5b506102c260048036038101906102bd9190611b90565b61062f565b005b3480156102d057600080fd5b506102eb60048036038101906102e69190611d05565b6107d1565b005b3480156102f957600080fd5b50610302610946565b60405161030f9190611d41565b60405180910390f35b34801561032457600080fd5b5061033f600480360381019061033a9190611b90565b61096f565b005b34801561034d57600080fd5b50610356610b0f565b005b34801561036457600080fd5b5061037f600480360381019061037a9190611d88565b610c12565b005b34801561038d57600080fd5b50610396610c6e565b6040516103a39190611dd6565b60405180910390f35b3480156103b857600080fd5b506103d360048036038101906103ce9190611d05565b610c94565b005b3480156103e157600080fd5b506103ea610e09565b6040516103f79190611cbe565b60405180910390f35b34801561040c57600080fd5b50610415610e2d565b005b34801561042357600080fd5b5061042c610e85565b6040516104399190611bd8565b60405180910390f35b34801561044e57600080fd5b50610457610e98565b6040516104649190611bd8565b60405180910390f35b34801561047957600080fd5b50610494600480360381019061048f9190611b90565b610eab565b005b3480156104a257600080fd5b506104bd60048036038101906104b89190611d05565b610f31565b005b3480156104cb57600080fd5b506104d46110da565b6040516104e19190611bd8565b60405180910390f35b60016020528060005260406000206000915054906101000a900460ff1681565b60035481565b600060149054906101000a900461ffff1681565b61052c6117d4565b600073ffffffffffffffffffffffffffffffffffffffff168173ffffffffffffffffffffffffffffffffffffffff160361059b576040517f08c379a000000000000000000000000000000000000000000000000000000000815260040161059290611e4e565b60405180910390fd5b80600260016101000a81548173ffffffffffffffffffffffffffffffffffffffff021916908373ffffffffffffffffffffffffffffffffffffffff16021790555050565b662386f26fc1000081565b7f000000000000000000000000000000000000000000000000000000000000000081565b6106166117d4565b610620600061185b565b565b68056bc75e2d6310000081565b6106376117d4565b600073ffffffffffffffffffffffffffffffffffffffff168173ffffffffffffffffffffffffffffffffffffffff16036106a6576040517f08c379a000000000000000000000000000000000000000000000000000000000815260040161069d90611eba565b60405180910390fd5b600160008273ffffffffffffffffffffffffffffffffffffffff1673ffffffffffffffffffffffffffffffffffffffff16815260200190815260200160002060009054906101000a900460ff16156107ce576000600160008373ffffffffffffffffffffffffffffffffffffffff1673ffffffffffffffffffffffffffffffffffffffff16815260200190815260200160002060006101000a81548160ff0219169083151502179055506001600060148282829054906101000a900461ffff166107709190611f09565b92506101000a81548161ffff021916908361ffff1602179055508073ffffffffffffffffffffffffffffffffffffffff167f7a9f1e23d5426b34819d173153d59084cc3578d5a129b80bb27df683ac6b227860405160405180910390a25b50565b6107d96117d4565b6000811161081c576040517f08c379a000000000000000000000000000000000000000000000000000000000815260040161081390611f8b565b60405180910390fd5b807f000000000000000000000000000000000000000000000000000000000000000073ffffffffffffffffffffffffffffffffffffffff166370a08231306040518263ffffffff1660e01b81526004016108769190611d41565b602060405180830381865afa158015610893573d6000803e3d6000fd5b505050506040513d601f19601f820116820180604052508101906108b79190611fc0565b10156108f8576040517f08c379a00000000000000000000000000000000000000000000000000000000081526004016108ef90612039565b60405180910390fd5b61094333827f000000000000000000000000000000000000000000000000000000000000000073ffffffffffffffffffffffffffffffffffffffff1661191f9092919063ffffffff16565b50565b60008060009054906101000a900473ffffffffffffffffffffffffffffffffffffffff16905090565b6109776117d4565b600073ffffffffffffffffffffffffffffffffffffffff168173ffffffffffffffffffffffffffffffffffffffff16036109e6576040517f08c379a00000000000000000000000000000000000000000000000000000000081526004016109dd90611eba565b60405180910390fd5b600160008273ffffffffffffffffffffffffffffffffffffffff1673ffffffffffffffffffffffffffffffffffffffff16815260200190815260200160002060009054906101000a900460ff16610b0c5760018060008373ffffffffffffffffffffffffffffffffffffffff1673ffffffffffffffffffffffffffffffffffffffff16815260200190815260200160002060006101000a81548160ff0219169083151502179055506001600060148282829054906101000a900461ffff16610aae9190612059565b92506101000a81548161ffff021916908361ffff1602179055508073ffffffffffffffffffffffffffffffffffffffff167fd378ad41c1a753fd1ba9ec0fcd7970526c175b68545b4a02d6d15e7606fe359660405160405180910390a25b50565b610b17610946565b73ffffffffffffffffffffffffffffffffffffffff16610b3561199e565b73ffffffffffffffffffffffffffffffffffffffff161480610ba7575060016000610b5e61199e565b73ffffffffffffffffffffffffffffffffffffffff1673ffffffffffffffffffffffffffffffffffffffff16815260200190815260200160002060009054906101000a900460ff165b610be6576040517f08c379a0000000000000000000000000000000000000000000000000000000008152600401610bdd906120db565b60405180910390fd5b600460009054906101000a900460ff1615600460006101000a81548160ff021916908315150217905550565b610c1a6117d4565b80600260006101000a81548160ff0219169083151502179055507fb7b4d1364c10f8bcda04d589785b0aaeb7f8b526f36a6df41212357c4f8297e581604051610c639190611bd8565b60405180910390a150565b600260019054906101000a900473ffffffffffffffffffffffffffffffffffffffff1681565b610c9c6117d4565b60008111610cdf576040517f08c379a0000000000000000000000000000000000000000000000000000000008152600401610cd690611f8b565b60405180910390fd5b807f000000000000000000000000000000000000000000000000000000000000000073ffffffffffffffffffffffffffffffffffffffff166370a08231306040518263ffffffff1660e01b8152600401610d399190611d41565b602060405180830381865afa158015610d56573d6000803e3d6000fd5b505050506040513d601f19601f82011682018060405250810190610d7a9190611fc0565b1015610dbb576040517f08c379a0000000000000000000000000000000000000000000000000000000008152600401610db290612147565b60405180910390fd5b610e0633827f000000000000000000000000000000000000000000000000000000000000000073ffffffffffffffffffffffffffffffffffffffff1661191f9092919063ffffffff16565b50565b7f000000000000000000000000000000000000000000000000000000000000000081565b610e356117d4565b610e3d610946565b73ffffffffffffffffffffffffffffffffffffffff166108fc479081150290604051600060405180830381858888f19350505050158015610e82573d6000803e3d6000fd5b50565b600460009054906101000a900460ff1681565b600260009054906101000a900460ff1681565b610eb36117d4565b600073ffffffffffffffffffffffffffffffffffffffff168173ffffffffffffffffffffffffffffffffffffffff1603610f255760006040517f1e4fbdf7000000000000000000000000000000000000000000000000000000008152600401610f1c9190611d41565b60405180910390fd5b610f2e8161185b565b50565b610f396117d4565b600260019054906101000a900473ffffffffffffffffffffffffffffffffffffffff1673ffffffffffffffffffffffffffffffffffffffff1663d1d75a026040518163ffffffff1660e01b8152600401602060405180830381865afa158015610fa6573d6000803e3d6000fd5b505050506040513d601f19601f82011682018060405250810190610fca9190611fc0565b81101561100c576040517f08c379a0000000000000000000000000000000000000000000000000000000008152600401611003906121d9565b60405180910390fd5b80600381905550600260019054906101000a900473ffffffffffffffffffffffffffffffffffffffff1673ffffffffffffffffffffffffffffffffffffffff1663e81ba080826040518263ffffffff1660e01b815260040161106e9190611c0c565b600060405180830381600087803b15801561108857600080fd5b505af115801561109c573d6000803e3d6000fd5b505050507f3c22a8c4e30793d261fd72954ab97d9c314446ba7612a4ad133b88668cea12d2816040516110cf9190611c0c565b60405180910390a150565b6000600260009054906101000a900460ff161561112c576040517f08c379a000000000000000000000000000000000000000000000000000000000815260040161112390612245565b60405180910390fd5b600460009054906101000a900460ff161561117c576040517f08c379a0000000000000000000000000000000000000000000000000000000008152600401611173906122b1565b60405180910390fd5b600354600260019054906101000a900473ffffffffffffffffffffffffffffffffffffffff1673ffffffffffffffffffffffffffffffffffffffff1663d1d75a026040518163ffffffff1660e01b8152600401602060405180830381865afa1580156111ec573d6000803e3d6000fd5b505050506040513d601f19601f820116820180604052508101906112109190611fc0565b10611250576040517f08c379a00000000000000000000000000000000000000000000000000000000081526004016112479061231d565b60405180910390fd5b662386f26fc100007f000000000000000000000000000000000000000000000000000000000000000073ffffffffffffffffffffffffffffffffffffffff166370a08231336040518263ffffffff1660e01b81526004016112b19190611d41565b602060405180830381865afa1580156112ce573d6000803e3d6000fd5b505050506040513d601f19601f820116820180604052508101906112f29190611fc0565b1015611333576040517f08c379a000000000000000000000000000000000000000000000000000000000815260040161132a90612039565b60405180910390fd5b662386f26fc100007f000000000000000000000000000000000000000000000000000000000000000073ffffffffffffffffffffffffffffffffffffffff1663dd62ed3e33306040518363ffffffff1660e01b815260040161139692919061233d565b602060405180830381865afa1580156113b3573d6000803e3d6000fd5b505050506040513d601f19601f820116820180604052508101906113d79190611fc0565b1015611418576040517f08c379a000000000000000000000000000000000000000000000000000000000815260040161140f906123b2565b60405180910390fd5b61146c3330662386f26fc100007f000000000000000000000000000000000000000000000000000000000000000073ffffffffffffffffffffffffffffffffffffffff166119a6909392919063ffffffff16565b6000611476611a28565b90506000600680805490508361148c9190612401565b8154811061149d5761149c612432565b5b906000526020600020015490506002810361163a576000600260019054906101000a900473ffffffffffffffffffffffffffffffffffffffff1673ffffffffffffffffffffffffffffffffffffffff1663d1d75a026040518163ffffffff1660e01b8152600401602060405180830381865afa158015611521573d6000803e3d6000fd5b505050506040513d601f19601f820116820180604052508101906115459190611fc0565b9050600260019054906101000a900473ffffffffffffffffffffffffffffffffffffffff1673ffffffffffffffffffffffffffffffffffffffff16637b006774336040518263ffffffff1660e01b81526004016115a29190611d41565b6020604051808303816000875af11580156115c1573d6000803e3d6000fd5b505050506040513d601f19601f820116820180604052508101906115e59190612476565b503373ffffffffffffffffffffffffffffffffffffffff167f0f6798a560793a54c3bcfe86a93cde1e73087d944c0ea20544137d41213968858260405161162c9190611c0c565b60405180910390a2506117cb565b68056bc75e2d631000007f000000000000000000000000000000000000000000000000000000000000000073ffffffffffffffffffffffffffffffffffffffff166370a08231306040518263ffffffff1660e01b815260040161169d9190611d41565b602060405180830381865afa1580156116ba573d6000803e3d6000fd5b505050506040513d601f19601f820116820180604052508101906116de9190611fc0565b101561171f576040517f08c379a0000000000000000000000000000000000000000000000000000000008152600401611716906124ef565b60405180910390fd5b6117733368056bc75e2d631000007f000000000000000000000000000000000000000000000000000000000000000073ffffffffffffffffffffffffffffffffffffffff1661191f9092919063ffffffff16565b3373ffffffffffffffffffffffffffffffffffffffff167f2fb535b62a8c7a54b344a9f9f701924cc7507bcf12259bce979139d582c10eee68056bc75e2d631000006040516117c29190611c0c565b60405180910390a25b60019250505090565b6117dc61199e565b73ffffffffffffffffffffffffffffffffffffffff166117fa610946565b73ffffffffffffffffffffffffffffffffffffffff16146118595761181d61199e565b6040517f118cdaa70000000000000000000000000000000000000000000000000000000081526004016118509190611d41565b60405180910390fd5b565b60008060009054906101000a900473ffffffffffffffffffffffffffffffffffffffff169050816000806101000a81548173ffffffffffffffffffffffffffffffffffffffff021916908373ffffffffffffffffffffffffffffffffffffffff1602179055508173ffffffffffffffffffffffffffffffffffffffff168173ffffffffffffffffffffffffffffffffffffffff167f8be0079c531659141344cd1fd0a4f28419497f9722a3daafe3b4186f6b6457e060405160405180910390a35050565b611999838473ffffffffffffffffffffffffffffffffffffffff1663a9059cbb858560405160240161195292919061250f565b604051602081830303815290604052915060e01b6020820180517bffffffffffffffffffffffffffffffffffffffffffffffffffffffff8381831617835250505050611a8b565b505050565b600033905090565b611a22848573ffffffffffffffffffffffffffffffffffffffff166323b872dd8686866040516024016119db93929190612538565b604051602081830303815290604052915060e01b6020820180517bffffffffffffffffffffffffffffffffffffffffffffffffffffffff8381831617835250505050611a8b565b50505050565b600060056000815480929190611a3d9061256f565b91905055506000423344600554604051602001611a5d9493929190612620565b6040516020818303038152906040528051906020012060001c9050606481611a859190612401565b91505090565b600080602060008451602086016000885af180611aae576040513d6000823e3d81fd5b3d925060005191505060008214611ac9576001811415611ae5565b60008473ffffffffffffffffffffffffffffffffffffffff163b145b15611b2757836040517f5274afe7000000000000000000000000000000000000000000000000000000008152600401611b1e9190611d41565b60405180910390fd5b50505050565b600080fd5b600073ffffffffffffffffffffffffffffffffffffffff82169050919050565b6000611b5d82611b32565b9050919050565b611b6d81611b52565b8114611b7857600080fd5b50565b600081359050611b8a81611b64565b92915050565b600060208284031215611ba657611ba5611b2d565b5b6000611bb484828501611b7b565b91505092915050565b60008115159050919050565b611bd281611bbd565b82525050565b6000602082019050611bed6000830184611bc9565b92915050565b6000819050919050565b611c0681611bf3565b82525050565b6000602082019050611c216000830184611bfd565b92915050565b600061ffff82169050919050565b611c3e81611c27565b82525050565b6000602082019050611c596000830184611c35565b92915050565b6000819050919050565b6000611c84611c7f611c7a84611b32565b611c5f565b611b32565b9050919050565b6000611c9682611c69565b9050919050565b6000611ca882611c8b565b9050919050565b611cb881611c9d565b82525050565b6000602082019050611cd36000830184611caf565b92915050565b611ce281611bf3565b8114611ced57600080fd5b50565b600081359050611cff81611cd9565b92915050565b600060208284031215611d1b57611d1a611b2d565b5b6000611d2984828501611cf0565b91505092915050565b611d3b81611b52565b82525050565b6000602082019050611d566000830184611d32565b92915050565b611d6581611bbd565b8114611d7057600080fd5b50565b600081359050611d8281611d5c565b92915050565b600060208284031215611d9e57611d9d611b2d565b5b6000611dac84828501611d73565b91505092915050565b6000611dc082611c8b565b9050919050565b611dd081611db5565b82525050565b6000602082019050611deb6000830184611dc7565b92915050565b600082825260208201905092915050565b7f496e76616c6964204e465420636f6e7472616374206164647265737300000000600082015250565b6000611e38601c83611df1565b9150611e4382611e02565b602082019050919050565b60006020820190508181036000830152611e6781611e2b565b9050919050565b7f496e76616c6964206d6f64657261746f72206164647265737300000000000000600082015250565b6000611ea4601983611df1565b9150611eaf82611e6e565b602082019050919050565b60006020820190508181036000830152611ed381611e97565b9050919050565b7f4e487b7100000000000000000000000000000000000000000000000000000000600052601160045260246000fd5b6000611f1482611c27565b9150611f1f83611c27565b9250828203905061ffff811115611f3957611f38611eda565b5b92915050565b7f416d6f756e74206d7573742062652067726561746572207468616e2030000000600082015250565b6000611f75601d83611df1565b9150611f8082611f3f565b602082019050919050565b60006020820190508181036000830152611fa481611f68565b9050919050565b600081519050611fba81611cd9565b92915050565b600060208284031215611fd657611fd5611b2d565b5b6000611fe484828501611fab565b91505092915050565b7f496e73756666696369656e74207063546f6b656e2062616c616e636500000000600082015250565b6000612023601c83611df1565b915061202e82611fed565b602082019050919050565b6000602082019050818103600083015261205281612016565b9050919050565b600061206482611c27565b915061206f83611c27565b9250828201905061ffff81111561208957612088611eda565b5b92915050565b7f5265737472696374656420416363657373000000000000000000000000000000600082015250565b60006120c5601183611df1565b91506120d08261208f565b602082019050919050565b600060208201905081810360008301526120f4816120b8565b9050919050565b7f496e73756666696369656e74205a4f522062616c616e63650000000000000000600082015250565b6000612131601883611df1565b915061213c826120fb565b602082019050919050565b6000602082019050818103600083015261216081612124565b9050919050565b7f4e657720636170206d7573742062652067726561746572207468616e2063757260008201527f72656e74206d696e74656420636f756e74000000000000000000000000000000602082015250565b60006121c3603183611df1565b91506121ce82612167565b604082019050919050565b600060208201905081810360008301526121f2816121b6565b9050919050565b7f436f6e747261637420756e646572206d61696e74656e616e6365000000000000600082015250565b600061222f601a83611df1565b915061223a826121f9565b602082019050919050565b6000602082019050818103600083015261225e81612222565b9050919050565b7f4d696e74696e6720706175736564000000000000000000000000000000000000600082015250565b600061229b600e83611df1565b91506122a682612265565b602082019050919050565b600060208201905081810360008301526122ca8161228e565b9050919050565b7f4d696e74696e6720636170207265616368656400000000000000000000000000600082015250565b6000612307601383611df1565b9150612312826122d1565b602082019050919050565b60006020820190508181036000830152612336816122fa565b9050919050565b60006040820190506123526000830185611d32565b61235f6020830184611d32565b9392505050565b7f496e73756666696369656e74207063546f6b656e20616c6c6f77616e63650000600082015250565b600061239c601e83611df1565b91506123a782612366565b602082019050919050565b600060208201905081810360008301526123cb8161238f565b9050919050565b7f4e487b7100000000000000000000000000000000000000000000000000000000600052601260045260246000fd5b600061240c82611bf3565b915061241783611bf3565b925082612427576124266123d2565b5b828206905092915050565b7f4e487b7100000000000000000000000000000000000000000000000000000000600052603260045260246000fd5b60008151905061247081611d5c565b92915050565b60006020828403121561248c5761248b611b2d565b5b600061249a84828501612461565b91505092915050565b7f496e73756666696369656e74205a4f5220746f6b656e73000000000000000000600082015250565b60006124d9601783611df1565b91506124e4826124a3565b602082019050919050565b60006020820190508181036000830152612508816124cc565b9050919050565b60006040820190506125246000830185611d32565b6125316020830184611bfd565b9392505050565b600060608201905061254d6000830186611d32565b61255a6020830185611d32565b6125676040830184611bfd565b949350505050565b600061257a82611bf3565b91507fffffffffffffffffffffffffffffffffffffffffffffffffffffffffffffffff82036125ac576125ab611eda565b5b600182019050919050565b6000819050919050565b6125d26125cd82611bf3565b6125b7565b82525050565b60008160601b9050919050565b60006125f0826125d8565b9050919050565b6000612602826125e5565b9050919050565b61261a61261582611b52565b6125f7565b82525050565b600061262c82876125c1565b60208201915061263c8286612609565b60148201915061264c82856125c1565b60208201915061265c82846125c1565b6020820191508190509594505050505056fea26469706673582212200b8af8a69b96e3c215ba311304af8f5ae223f3e43c90c4876f45896a71b99d7864736f6c634300081c0033",
  "linkReferences": {},
  "deployedLinkReferences": {}
}