{
  "_format": "hh-sol-artifact-1",
  "contractName": "RugDistributor",
  "sourceName": "contracts/RugDistributor.sol",
  "abi": [
    {
      "inputs": [
        {
          "internalType": "address",
          "name": "_nftContract",
          "type": "address"
        },
        {
          "internalType": "address",
          "name": "_pcToken",
          "type": "address"
        },
        {
          "internalType": "address",
          "name": "_zorToken",
          "type": "address"
        }
      ],
      "stateMutability": "nonpayable",
      "type": "constructor"
    },
    {
      "inputs": [
        {
          "internalType": "address",
          "name": "owner",
          "type": "address"
        }
      ],
      "name": "OwnableInvalidOwner",
      "type": "error"
    },
    {
      "inputs": [
        {
          "internalType": "address",
          "name": "account",
          "type": "address"
        }
      ],
      "name": "OwnableUnauthorizedAccount",
      "type": "error"
    },
    {
      "inputs": [
        {
          "internalType": "address",
          "name": "token",
          "type": "address"
        }
      ],
      "name": "SafeERC20FailedOperation",
      "type": "error"
    },
    {
      "anonymous": false,
      "inputs": [
        {
          "indexed": false,
          "internalType": "string",
          "name": "message",
          "type": "string"
        },
        {
          "indexed": true,
          "internalType": "address",
          "name": "sender",
          "type": "address"
        },
        {
          "indexed": false,
          "internalType": "uint256",
          "name": "value",
          "type": "uint256"
        }
      ],
      "name": "Debug",
      "type": "event"
    },
    {
      "anonymous": false,
      "inputs": [
        {
          "indexed": false,
          "internalType": "bool",
          "name": "isMaintaining",
          "type": "bool"
        }
      ],
      "name": "MaintenanceUpdated",
      "type": "event"
    },
    {
      "anonymous": false,
      "inputs": [
        {
          "indexed": true,
          "internalType": "address",
          "name": "owner",
          "type": "address"
        },
        {
          "indexed": false,
          "internalType": "uint256",
          "name": "token",
          "type": "uint256"
        }
      ],
      "name": "Mint",
      "type": "event"
    },
    {
      "anonymous": false,
      "inputs": [
        {
          "indexed": true,
          "internalType": "address",
          "name": "moderator",
          "type": "address"
        }
      ],
      "name": "ModeratorAdded",
      "type": "event"
    },
    {
      "anonymous": false,
      "inputs": [
        {
          "indexed": true,
          "internalType": "address",
          "name": "moderator",
          "type": "address"
        }
      ],
      "name": "ModeratorRemoved",
      "type": "event"
    },
    {
      "anonymous": false,
      "inputs": [
        {
          "indexed": true,
          "internalType": "address",
          "name": "previousOwner",
          "type": "address"
        },
        {
          "indexed": true,
          "internalType": "address",
          "name": "newOwner",
          "type": "address"
        }
      ],
      "name": "OwnershipTransferred",
      "type": "event"
    },
    {
      "anonymous": false,
      "inputs": [
        {
          "indexed": true,
          "internalType": "address",
          "name": "owner",
          "type": "address"
        },
        {
          "indexed": false,
          "internalType": "uint256",
          "name": "amount",
          "type": "uint256"
        }
      ],
      "name": "ZORRewarded",
      "type": "event"
    },
    {
      "stateMutability": "payable",
      "type": "fallback"
    },
    {
      "inputs": [],
      "name": "ERC20_PRICE_NFT",
      "outputs": [
        {
          "internalType": "uint256",
          "name": "",
          "type": "uint256"
        }
      ],
      "stateMutability": "view",
      "type": "function"
    },
    {
      "inputs": [],
      "name": "MINTING_CAP",
      "outputs": [
        {
          "internalType": "uint256",
          "name": "",
          "type": "uint256"
        }
      ],
      "stateMutability": "view",
      "type": "function"
    },
    {
      "inputs": [],
      "name": "ZOR_REWARD_AMOUNT",
      "outputs": [
        {
          "internalType": "uint256",
          "name": "",
          "type": "uint256"
        }
      ],
      "stateMutability": "view",
      "type": "function"
    },
    {
      "inputs": [
        {
          "internalType": "address",
          "name": "_newModerator",
          "type": "address"
        }
      ],
      "name": "addModerator",
      "outputs": [],
      "stateMutability": "nonpayable",
      "type": "function"
    },
    {
      "inputs": [
        {
          "internalType": "uint256",
          "name": "_amount",
          "type": "uint256"
        }
      ],
      "name": "adminWithdrawERC20",
      "outputs": [],
      "stateMutability": "nonpayable",
      "type": "function"
    },
    {
      "inputs": [
        {
          "internalType": "uint256",
          "name": "_amount",
          "type": "uint256"
        }
      ],
      "name": "adminWithdrawZOR",
      "outputs": [],
      "stateMutability": "nonpayable",
      "type": "function"
    },
    {
      "inputs": [],
      "name": "erc20Mint",
      "outputs": [
        {
          "internalType": "bool",
          "name": "",
          "type": "bool"
        }
      ],
      "stateMutability": "nonpayable",
      "type": "function"
    },
    {
      "inputs": [],
      "name": "isMaintaining",
      "outputs": [
        {
          "internalType": "bool",
          "name": "",
          "type": "bool"
        }
      ],
      "stateMutability": "view",
      "type": "function"
    },
    {
      "inputs": [],
      "name": "mintingPaused",
      "outputs": [
        {
          "internalType": "bool",
          "name": "",
          "type": "bool"
        }
      ],
      "stateMutability": "view",
      "type": "function"
    },
    {
      "inputs": [
        {
          "internalType": "address",
          "name": "",
          "type": "address"
        }
      ],
      "name": "moderators",
      "outputs": [
        {
          "internalType": "bool",
          "name": "",
          "type": "bool"
        }
      ],
      "stateMutability": "view",
      "type": "function"
    },
    {
      "inputs": [],
      "name": "nftContract",
      "outputs": [
        {
          "internalType": "contract Rug",
          "name": "",
          "type": "address"
        }
      ],
      "stateMutability": "view",
      "type": "function"
    },
    {
      "inputs": [],
      "name": "owner",
      "outputs": [
        {
          "internalType": "address",
          "name": "",
          "type": "address"
        }
      ],
      "stateMutability": "view",
      "type": "function"
    },
    {
      "inputs": [],
      "name": "pcToken",
      "outputs": [
        {
          "internalType": "contract IERC20",
          "name": "",
          "type": "address"
        }
      ],
      "stateMutability": "view",
      "type": "function"
    },
    {
      "inputs": [
        {
          "internalType": "address",
          "name": "_moderator",
          "type": "address"
        }
      ],
      "name": "removeModerator",
      "outputs": [],
      "stateMutability": "nonpayable",
      "type": "function"
    },
    {
      "inputs": [],
      "name": "renounceOwnership",
      "outputs": [],
      "stateMutability": "nonpayable",
      "type": "function"
    },
    {
      "inputs": [
        {
          "internalType": "address",
          "name": "_nftContract",
          "type": "address"
        }
      ],
      "name": "setContracts",
      "outputs": [],
      "stateMutability": "nonpayable",
      "type": "function"
    },
    {
      "inputs": [],
      "name": "togglePause",
      "outputs": [],
      "stateMutability": "nonpayable",
      "type": "function"
    },
    {
      "inputs": [],
      "name": "totalModerators",
      "outputs": [
        {
          "internalType": "uint16",
          "name": "",
          "type": "uint16"
        }
      ],
      "stateMutability": "view",
      "type": "function"
    },
    {
      "inputs": [
        {
          "internalType": "address",
          "name": "newOwner",
          "type": "address"
        }
      ],
      "name": "transferOwnership",
      "outputs": [],
      "stateMutability": "nonpayable",
      "type": "function"
    },
    {
      "inputs": [
        {
          "internalType": "bool",
          "name": "_isMaintaining",
          "type": "bool"
        }
      ],
      "name": "updateMaintaining",
      "outputs": [],
      "stateMutability": "nonpayable",
      "type": "function"
    },
    {
      "inputs": [],
      "name": "withdrawETH",
      "outputs": [],
      "stateMutability": "nonpayable",
      "type": "function"
    },
    {
      "inputs": [],
      "name": "zorToken",
      "outputs": [
        {
          "internalType": "contract IERC20",
          "name": "",
          "type": "address"
        }
      ],
      "stateMutability": "view",
      "type": "function"
    },
    {
      "stateMutability": "payable",
      "type": "receive"
    }
  ],
  "bytecode": "0x60c060405260008060146101000a81548161ffff021916908361ffff1602179055506000600260006101000a81548160ff0219169083151502179055506000600260156101000a81548160ff02191690831515021790555060006003556040518060600160405280600260ff168152602001600160ff168152602001600160ff168152506004906003610093929190610407565b503480156100a057600080fd5b50604051612f3c380380612f3c83398181016040528101906100c291906104d9565b33600073ffffffffffffffffffffffffffffffffffffffff168173ffffffffffffffffffffffffffffffffffffffff16036101355760006040517f1e4fbdf700000000000000000000000000000000000000000000000000000000815260040161012c919061053b565b60405180910390fd5b6101448161034360201b60201c565b50600073ffffffffffffffffffffffffffffffffffffffff168373ffffffffffffffffffffffffffffffffffffffff16036101b4576040517f08c379a00000000000000000000000000000000000000000000000000000000081526004016101ab906105b3565b60405180910390fd5b600073ffffffffffffffffffffffffffffffffffffffff168273ffffffffffffffffffffffffffffffffffffffff1603610223576040517f08c379a000000000000000000000000000000000000000000000000000000000815260040161021a9061061f565b60405180910390fd5b600073ffffffffffffffffffffffffffffffffffffffff168173ffffffffffffffffffffffffffffffffffffffff1603610292576040517f08c379a00000000000000000000000000000000000000000000000000000000081526004016102899061068b565b60405180910390fd5b82600260016101000a81548173ffffffffffffffffffffffffffffffffffffffff021916908373ffffffffffffffffffffffffffffffffffffffff1602179055508173ffffffffffffffffffffffffffffffffffffffff1660808173ffffffffffffffffffffffffffffffffffffffff16815250508073ffffffffffffffffffffffffffffffffffffffff1660a08173ffffffffffffffffffffffffffffffffffffffff16815250505050506106ab565b60008060009054906101000a900473ffffffffffffffffffffffffffffffffffffffff169050816000806101000a81548173ffffffffffffffffffffffffffffffffffffffff021916908373ffffffffffffffffffffffffffffffffffffffff1602179055508173ffffffffffffffffffffffffffffffffffffffff168173ffffffffffffffffffffffffffffffffffffffff167f8be0079c531659141344cd1fd0a4f28419497f9722a3daafe3b4186f6b6457e060405160405180910390a35050565b828054828255906000526020600020908101928215610448579160200282015b82811115610447578251829060ff16905591602001919060010190610427565b5b5090506104559190610459565b5090565b5b8082111561047257600081600090555060010161045a565b5090565b600080fd5b600073ffffffffffffffffffffffffffffffffffffffff82169050919050565b60006104a68261047b565b9050919050565b6104b68161049b565b81146104c157600080fd5b50565b6000815190506104d3816104ad565b92915050565b6000806000606084860312156104f2576104f1610476565b5b6000610500868287016104c4565b9350506020610511868287016104c4565b9250506040610522868287016104c4565b9150509250925092565b6105358161049b565b82525050565b6000602082019050610550600083018461052c565b92915050565b600082825260208201905092915050565b7f496e76616c6964204e465420636f6e7472616374206164647265737300000000600082015250565b600061059d601c83610556565b91506105a882610567565b602082019050919050565b600060208201905081810360008301526105cc81610590565b9050919050565b7f496e76616c696420504320746f6b656e20616464726573730000000000000000600082015250565b6000610609601883610556565b9150610614826105d3565b602082019050919050565b60006020820190508181036000830152610638816105fc565b9050919050565b7f496e76616c6964205a4f5220746f6b656e206164647265737300000000000000600082015250565b6000610675601983610556565b91506106808261063f565b602082019050919050565b600060208201905081810360008301526106a481610668565b9050919050565b60805160a05161282d61070f60003960008181610cac01528181610d8c01528181610dd50152818161160101526116e90152600081816105b7015281816107e9015281816108c90152818161107a0152818161115d015261129c015261282d6000f3fe6080604052600436106101395760003560e01c8063b532e4cb116100ab578063da9778b41161006f578063da9778b4146103ca578063e086e5ec146103f5578063e1a283d61461040c578063ee4e441614610437578063f2fde38b14610462578063f97023021461048b5761013a565b8063b532e4cb1461030d578063c4ae316814610336578063d32ca9d21461034d578063d56d229d14610376578063d9cc9316146103a15761013a565b80636bad9d37116100fd5780636bad9d3714610223578063715018a61461024e5780637c39705b14610265578063869d785f1461029057806388cd5381146102b95780638da5cb5b146102e25761013a565b806314d0f1ba1461013c5780632a87356b146101795780634efb023e146101a45780635a2e2f47146101cf5780635ada3276146101f85761013a565b5b005b34801561014857600080fd5b50610163600480360381019061015e9190611b49565b6104b6565b6040516101709190611b91565b60405180910390f35b34801561018557600080fd5b5061018e6104d6565b60405161019b9190611bc5565b60405180910390f35b3480156101b057600080fd5b506101b96104db565b6040516101c69190611bfd565b60405180910390f35b3480156101db57600080fd5b506101f660048036038101906101f19190611b49565b6104ef565b005b34801561020457600080fd5b5061020d6105aa565b60405161021a9190611bc5565b60405180910390f35b34801561022f57600080fd5b506102386105b5565b6040516102459190611c77565b60405180910390f35b34801561025a57600080fd5b506102636105d9565b005b34801561027157600080fd5b5061027a6105ed565b6040516102879190611bc5565b60405180910390f35b34801561029c57600080fd5b506102b760048036038101906102b29190611b49565b6105f9565b005b3480156102c557600080fd5b506102e060048036038101906102db9190611cbe565b61079b565b005b3480156102ee57600080fd5b506102f7610910565b6040516103049190611cfa565b60405180910390f35b34801561031957600080fd5b50610334600480360381019061032f9190611b49565b610939565b005b34801561034257600080fd5b5061034b610ad9565b005b34801561035957600080fd5b50610374600480360381019061036f9190611d41565b610bdc565b005b34801561038257600080fd5b5061038b610c38565b6040516103989190611d8f565b60405180910390f35b3480156103ad57600080fd5b506103c860048036038101906103c39190611cbe565b610c5e565b005b3480156103d657600080fd5b506103df610dd3565b6040516103ec9190611c77565b60405180910390f35b34801561040157600080fd5b5061040a610df7565b005b34801561041857600080fd5b50610421610e4f565b60405161042e9190611b91565b60405180910390f35b34801561044357600080fd5b5061044c610e62565b6040516104599190611b91565b60405180910390f35b34801561046e57600080fd5b5061048960048036038101906104849190611b49565b610e75565b005b34801561049757600080fd5b506104a0610efb565b6040516104ad9190611b91565b60405180910390f35b60016020528060005260406000206000915054906101000a900460ff1681565b606481565b600060149054906101000a900461ffff1681565b6104f761178d565b600073ffffffffffffffffffffffffffffffffffffffff168173ffffffffffffffffffffffffffffffffffffffff1603610566576040517f08c379a000000000000000000000000000000000000000000000000000000000815260040161055d90611e07565b60405180910390fd5b80600260016101000a81548173ffffffffffffffffffffffffffffffffffffffff021916908373ffffffffffffffffffffffffffffffffffffffff16021790555050565b662386f26fc1000081565b7f000000000000000000000000000000000000000000000000000000000000000081565b6105e161178d565b6105eb6000611814565b565b678ac7230489e8000081565b61060161178d565b600073ffffffffffffffffffffffffffffffffffffffff168173ffffffffffffffffffffffffffffffffffffffff1603610670576040517f08c379a000000000000000000000000000000000000000000000000000000000815260040161066790611e73565b60405180910390fd5b600160008273ffffffffffffffffffffffffffffffffffffffff1673ffffffffffffffffffffffffffffffffffffffff16815260200190815260200160002060009054906101000a900460ff1615610798576000600160008373ffffffffffffffffffffffffffffffffffffffff1673ffffffffffffffffffffffffffffffffffffffff16815260200190815260200160002060006101000a81548160ff0219169083151502179055506001600060148282829054906101000a900461ffff1661073a9190611ec2565b92506101000a81548161ffff021916908361ffff1602179055508073ffffffffffffffffffffffffffffffffffffffff167f7a9f1e23d5426b34819d173153d59084cc3578d5a129b80bb27df683ac6b227860405160405180910390a25b50565b6107a361178d565b600081116107e6576040517f08c379a00000000000000000000000000000000000000000000000000000000081526004016107dd90611f44565b60405180910390fd5b807f000000000000000000000000000000000000000000000000000000000000000073ffffffffffffffffffffffffffffffffffffffff166370a08231306040518263ffffffff1660e01b81526004016108409190611cfa565b602060405180830381865afa15801561085d573d6000803e3d6000fd5b505050506040513d601f19601f820116820180604052508101906108819190611f79565b10156108c2576040517f08c379a00000000000000000000000000000000000000000000000000000000081526004016108b990611ff2565b60405180910390fd5b61090d33827f000000000000000000000000000000000000000000000000000000000000000073ffffffffffffffffffffffffffffffffffffffff166118d89092919063ffffffff16565b50565b60008060009054906101000a900473ffffffffffffffffffffffffffffffffffffffff16905090565b61094161178d565b600073ffffffffffffffffffffffffffffffffffffffff168173ffffffffffffffffffffffffffffffffffffffff16036109b0576040517f08c379a00000000000000000000000000000000000000000000000000000000081526004016109a790611e73565b60405180910390fd5b600160008273ffffffffffffffffffffffffffffffffffffffff1673ffffffffffffffffffffffffffffffffffffffff16815260200190815260200160002060009054906101000a900460ff16610ad65760018060008373ffffffffffffffffffffffffffffffffffffffff1673ffffffffffffffffffffffffffffffffffffffff16815260200190815260200160002060006101000a81548160ff0219169083151502179055506001600060148282829054906101000a900461ffff16610a789190612012565b92506101000a81548161ffff021916908361ffff1602179055508073ffffffffffffffffffffffffffffffffffffffff167fd378ad41c1a753fd1ba9ec0fcd7970526c175b68545b4a02d6d15e7606fe359660405160405180910390a25b50565b610ae1610910565b73ffffffffffffffffffffffffffffffffffffffff16610aff611957565b73ffffffffffffffffffffffffffffffffffffffff161480610b71575060016000610b28611957565b73ffffffffffffffffffffffffffffffffffffffff1673ffffffffffffffffffffffffffffffffffffffff16815260200190815260200160002060009054906101000a900460ff165b610bb0576040517f08c379a0000000000000000000000000000000000000000000000000000000008152600401610ba790612094565b60405180910390fd5b600260159054906101000a900460ff1615600260156101000a81548160ff021916908315150217905550565b610be461178d565b80600260006101000a81548160ff0219169083151502179055507fb7b4d1364c10f8bcda04d589785b0aaeb7f8b526f36a6df41212357c4f8297e581604051610c2d9190611b91565b60405180910390a150565b600260019054906101000a900473ffffffffffffffffffffffffffffffffffffffff1681565b610c6661178d565b60008111610ca9576040517f08c379a0000000000000000000000000000000000000000000000000000000008152600401610ca090611f44565b60405180910390fd5b807f000000000000000000000000000000000000000000000000000000000000000073ffffffffffffffffffffffffffffffffffffffff166370a08231306040518263ffffffff1660e01b8152600401610d039190611cfa565b602060405180830381865afa158015610d20573d6000803e3d6000fd5b505050506040513d601f19601f82011682018060405250810190610d449190611f79565b1015610d85576040517f08c379a0000000000000000000000000000000000000000000000000000000008152600401610d7c90612100565b60405180910390fd5b610dd033827f000000000000000000000000000000000000000000000000000000000000000073ffffffffffffffffffffffffffffffffffffffff166118d89092919063ffffffff16565b50565b7f000000000000000000000000000000000000000000000000000000000000000081565b610dff61178d565b610e07610910565b73ffffffffffffffffffffffffffffffffffffffff166108fc479081150290604051600060405180830381858888f19350505050158015610e4c573d6000803e3d6000fd5b50565b600260159054906101000a900460ff1681565b600260009054906101000a900460ff1681565b610e7d61178d565b600073ffffffffffffffffffffffffffffffffffffffff168173ffffffffffffffffffffffffffffffffffffffff1603610eef5760006040517f1e4fbdf7000000000000000000000000000000000000000000000000000000008152600401610ee69190611cfa565b60405180910390fd5b610ef881611814565b50565b6000600260009054906101000a900460ff1615610f4d576040517f08c379a0000000000000000000000000000000000000000000000000000000008152600401610f449061216c565b60405180910390fd5b600260159054906101000a900460ff1615610f9d576040517f08c379a0000000000000000000000000000000000000000000000000000000008152600401610f94906121d8565b60405180910390fd5b6064600260019054906101000a900473ffffffffffffffffffffffffffffffffffffffff1673ffffffffffffffffffffffffffffffffffffffff1663d1d75a026040518163ffffffff1660e01b8152600401602060405180830381865afa15801561100c573d6000803e3d6000fd5b505050506040513d601f19601f820116820180604052508101906110309190611f79565b10611070576040517f08c379a000000000000000000000000000000000000000000000000000000000815260040161106790612244565b60405180910390fd5b662386f26fc100007f000000000000000000000000000000000000000000000000000000000000000073ffffffffffffffffffffffffffffffffffffffff166370a08231336040518263ffffffff1660e01b81526004016110d19190611cfa565b602060405180830381865afa1580156110ee573d6000803e3d6000fd5b505050506040513d601f19601f820116820180604052508101906111129190611f79565b1015611153576040517f08c379a000000000000000000000000000000000000000000000000000000000815260040161114a90611ff2565b60405180910390fd5b662386f26fc100007f000000000000000000000000000000000000000000000000000000000000000073ffffffffffffffffffffffffffffffffffffffff1663dd62ed3e33306040518363ffffffff1660e01b81526004016111b6929190612264565b602060405180830381865afa1580156111d3573d6000803e3d6000fd5b505050506040513d601f19601f820116820180604052508101906111f79190611f79565b1015611238576040517f08c379a000000000000000000000000000000000000000000000000000000000815260040161122f906122d9565b60405180910390fd5b3373ffffffffffffffffffffffffffffffffffffffff167fe5589756feb14fa54053633b30d9de8c8c4a3347afc5bd6efc411f7823ae87f2662386f26fc100006040516112859190612345565b60405180910390a26112e13330662386f26fc100007f000000000000000000000000000000000000000000000000000000000000000073ffffffffffffffffffffffffffffffffffffffff1661195f909392919063ffffffff16565b3373ffffffffffffffffffffffffffffffffffffffff167fe5589756feb14fa54053633b30d9de8c8c4a3347afc5bd6efc411f7823ae87f2662386f26fc1000060405161132e91906123bf565b60405180910390a260006113406119e1565b905060006004808054905083611356919061241c565b815481106113675761136661244d565b5b906000526020600020015490503373ffffffffffffffffffffffffffffffffffffffff167fe5589756feb14fa54053633b30d9de8c8c4a3347afc5bd6efc411f7823ae87f2836040516113ba91906124c8565b60405180910390a2600281036115a0576000600260019054906101000a900473ffffffffffffffffffffffffffffffffffffffff1673ffffffffffffffffffffffffffffffffffffffff1663d1d75a026040518163ffffffff1660e01b8152600401602060405180830381865afa158015611439573d6000803e3d6000fd5b505050506040513d601f19601f8201168201806040525081019061145d9190611f79565b90503373ffffffffffffffffffffffffffffffffffffffff167fe5589756feb14fa54053633b30d9de8c8c4a3347afc5bd6efc411f7823ae87f2826040516114a59190612542565b60405180910390a2600260019054906101000a900473ffffffffffffffffffffffffffffffffffffffff1673ffffffffffffffffffffffffffffffffffffffff16637b006774336040518263ffffffff1660e01b81526004016115089190611cfa565b6020604051808303816000875af1158015611527573d6000803e3d6000fd5b505050506040513d601f19601f8201168201806040525081019061154b9190612585565b503373ffffffffffffffffffffffffffffffffffffffff167f0f6798a560793a54c3bcfe86a93cde1e73087d944c0ea20544137d4121396885826040516115929190611bc5565b60405180910390a250611784565b3373ffffffffffffffffffffffffffffffffffffffff167fe5589756feb14fa54053633b30d9de8c8c4a3347afc5bd6efc411f7823ae87f2678ac7230489e800006040516115ee91906125fe565b60405180910390a2678ac7230489e800007f000000000000000000000000000000000000000000000000000000000000000073ffffffffffffffffffffffffffffffffffffffff166370a08231306040518263ffffffff1660e01b81526004016116589190611cfa565b602060405180830381865afa158015611675573d6000803e3d6000fd5b505050506040513d601f19601f820116820180604052508101906116999190611f79565b10156116da576040517f08c379a00000000000000000000000000000000000000000000000000000000081526004016116d190612678565b60405180910390fd5b61172d33678ac7230489e800007f000000000000000000000000000000000000000000000000000000000000000073ffffffffffffffffffffffffffffffffffffffff166118d89092919063ffffffff16565b3373ffffffffffffffffffffffffffffffffffffffff167f2fb535b62a8c7a54b344a9f9f701924cc7507bcf12259bce979139d582c10eee678ac7230489e8000060405161177b9190611bc5565b60405180910390a25b60019250505090565b611795611957565b73ffffffffffffffffffffffffffffffffffffffff166117b3610910565b73ffffffffffffffffffffffffffffffffffffffff1614611812576117d6611957565b6040517f118cdaa70000000000000000000000000000000000000000000000000000000081526004016118099190611cfa565b60405180910390fd5b565b60008060009054906101000a900473ffffffffffffffffffffffffffffffffffffffff169050816000806101000a81548173ffffffffffffffffffffffffffffffffffffffff021916908373ffffffffffffffffffffffffffffffffffffffff1602179055508173ffffffffffffffffffffffffffffffffffffffff168173ffffffffffffffffffffffffffffffffffffffff167f8be0079c531659141344cd1fd0a4f28419497f9722a3daafe3b4186f6b6457e060405160405180910390a35050565b611952838473ffffffffffffffffffffffffffffffffffffffff1663a9059cbb858560405160240161190b929190612698565b604051602081830303815290604052915060e01b6020820180517bffffffffffffffffffffffffffffffffffffffffffffffffffffffff8381831617835250505050611a44565b505050565b600033905090565b6119db848573ffffffffffffffffffffffffffffffffffffffff166323b872dd868686604051602401611994939291906126c1565b604051602081830303815290604052915060e01b6020820180517bffffffffffffffffffffffffffffffffffffffffffffffffffffffff8381831617835250505050611a44565b50505050565b6000600360008154809291906119f6906126f8565b91905055506000423344600354604051602001611a1694939291906127a9565b6040516020818303038152906040528051906020012060001c9050606481611a3e919061241c565b91505090565b600080602060008451602086016000885af180611a67576040513d6000823e3d81fd5b3d925060005191505060008214611a82576001811415611a9e565b60008473ffffffffffffffffffffffffffffffffffffffff163b145b15611ae057836040517f5274afe7000000000000000000000000000000000000000000000000000000008152600401611ad79190611cfa565b60405180910390fd5b50505050565b600080fd5b600073ffffffffffffffffffffffffffffffffffffffff82169050919050565b6000611b1682611aeb565b9050919050565b611b2681611b0b565b8114611b3157600080fd5b50565b600081359050611b4381611b1d565b92915050565b600060208284031215611b5f57611b5e611ae6565b5b6000611b6d84828501611b34565b91505092915050565b60008115159050919050565b611b8b81611b76565b82525050565b6000602082019050611ba66000830184611b82565b92915050565b6000819050919050565b611bbf81611bac565b82525050565b6000602082019050611bda6000830184611bb6565b92915050565b600061ffff82169050919050565b611bf781611be0565b82525050565b6000602082019050611c126000830184611bee565b92915050565b6000819050919050565b6000611c3d611c38611c3384611aeb565b611c18565b611aeb565b9050919050565b6000611c4f82611c22565b9050919050565b6000611c6182611c44565b9050919050565b611c7181611c56565b82525050565b6000602082019050611c8c6000830184611c68565b92915050565b611c9b81611bac565b8114611ca657600080fd5b50565b600081359050611cb881611c92565b92915050565b600060208284031215611cd457611cd3611ae6565b5b6000611ce284828501611ca9565b91505092915050565b611cf481611b0b565b82525050565b6000602082019050611d0f6000830184611ceb565b92915050565b611d1e81611b76565b8114611d2957600080fd5b50565b600081359050611d3b81611d15565b92915050565b600060208284031215611d5757611d56611ae6565b5b6000611d6584828501611d2c565b91505092915050565b6000611d7982611c44565b9050919050565b611d8981611d6e565b82525050565b6000602082019050611da46000830184611d80565b92915050565b600082825260208201905092915050565b7f496e76616c6964204e465420636f6e7472616374206164647265737300000000600082015250565b6000611df1601c83611daa565b9150611dfc82611dbb565b602082019050919050565b60006020820190508181036000830152611e2081611de4565b9050919050565b7f496e76616c6964206d6f64657261746f72206164647265737300000000000000600082015250565b6000611e5d601983611daa565b9150611e6882611e27565b602082019050919050565b60006020820190508181036000830152611e8c81611e50565b9050919050565b7f4e487b7100000000000000000000000000000000000000000000000000000000600052601160045260246000fd5b6000611ecd82611be0565b9150611ed883611be0565b9250828203905061ffff811115611ef257611ef1611e93565b5b92915050565b7f416d6f756e74206d7573742062652067726561746572207468616e2030000000600082015250565b6000611f2e601d83611daa565b9150611f3982611ef8565b602082019050919050565b60006020820190508181036000830152611f5d81611f21565b9050919050565b600081519050611f7381611c92565b92915050565b600060208284031215611f8f57611f8e611ae6565b5b6000611f9d84828501611f64565b91505092915050565b7f496e73756666696369656e74207063546f6b656e2062616c616e636500000000600082015250565b6000611fdc601c83611daa565b9150611fe782611fa6565b602082019050919050565b6000602082019050818103600083015261200b81611fcf565b9050919050565b600061201d82611be0565b915061202883611be0565b9250828201905061ffff81111561204257612041611e93565b5b92915050565b7f5265737472696374656420416363657373000000000000000000000000000000600082015250565b600061207e601183611daa565b915061208982612048565b602082019050919050565b600060208201905081810360008301526120ad81612071565b9050919050565b7f496e73756666696369656e74205a4f522062616c616e63650000000000000000600082015250565b60006120ea601883611daa565b91506120f5826120b4565b602082019050919050565b60006020820190508181036000830152612119816120dd565b9050919050565b7f436f6e747261637420756e646572206d61696e74656e616e6365000000000000600082015250565b6000612156601a83611daa565b915061216182612120565b602082019050919050565b6000602082019050818103600083015261218581612149565b9050919050565b7f4d696e74696e6720706175736564000000000000000000000000000000000000600082015250565b60006121c2600e83611daa565b91506121cd8261218c565b602082019050919050565b600060208201905081810360008301526121f1816121b5565b9050919050565b7f4d696e74696e6720636170207265616368656400000000000000000000000000600082015250565b600061222e601383611daa565b9150612239826121f8565b602082019050919050565b6000602082019050818103600083015261225d81612221565b9050919050565b60006040820190506122796000830185611ceb565b6122866020830184611ceb565b9392505050565b7f496e73756666696369656e74207063546f6b656e20616c6c6f77616e63650000600082015250565b60006122c3601e83611daa565b91506122ce8261228d565b602082019050919050565b600060208201905081810360008301526122f2816122b6565b9050919050565b7f417474656d7074696e67207063546f6b656e207472616e736665720000000000600082015250565b600061232f601b83611daa565b915061233a826122f9565b602082019050919050565b6000604082019050818103600083015261235e81612322565b905061236d6020830184611bb6565b92915050565b7f7063546f6b656e207472616e7366657220737563636565737300000000000000600082015250565b60006123a9601983611daa565b91506123b482612373565b602082019050919050565b600060408201905081810360008301526123d88161239c565b90506123e76020830184611bb6565b92915050565b7f4e487b7100000000000000000000000000000000000000000000000000000000600052601260045260246000fd5b600061242782611bac565b915061243283611bac565b925082612442576124416123ed565b5b828206905092915050565b7f4e487b7100000000000000000000000000000000000000000000000000000000600052603260045260246000fd5b7f4f7574636f6d652073656c656374656400000000000000000000000000000000600082015250565b60006124b2601083611daa565b91506124bd8261247c565b602082019050919050565b600060408201905081810360008301526124e1816124a5565b90506124f06020830184611bb6565b92915050565b7f417474656d7074696e67204e4654206d696e7400000000000000000000000000600082015250565b600061252c601383611daa565b9150612537826124f6565b602082019050919050565b6000604082019050818103600083015261255b8161251f565b905061256a6020830184611bb6565b92915050565b60008151905061257f81611d15565b92915050565b60006020828403121561259b5761259a611ae6565b5b60006125a984828501612570565b91505092915050565b7f417474656d7074696e67205a4f52207472616e73666572000000000000000000600082015250565b60006125e8601783611daa565b91506125f3826125b2565b602082019050919050565b60006040820190508181036000830152612617816125db565b90506126266020830184611bb6565b92915050565b7f496e73756666696369656e74205a4f5220746f6b656e73000000000000000000600082015250565b6000612662601783611daa565b915061266d8261262c565b602082019050919050565b6000602082019050818103600083015261269181612655565b9050919050565b60006040820190506126ad6000830185611ceb565b6126ba6020830184611bb6565b9392505050565b60006060820190506126d66000830186611ceb565b6126e36020830185611ceb565b6126f06040830184611bb6565b949350505050565b600061270382611bac565b91507fffffffffffffffffffffffffffffffffffffffffffffffffffffffffffffffff820361273557612734611e93565b5b600182019050919050565b6000819050919050565b61275b61275682611bac565b612740565b82525050565b60008160601b9050919050565b600061277982612761565b9050919050565b600061278b8261276e565b9050919050565b6127a361279e82611b0b565b612780565b82525050565b60006127b5828761274a565b6020820191506127c58286612792565b6014820191506127d5828561274a565b6020820191506127e5828461274a565b6020820191508190509594505050505056fea264697066735822122078db88a6fd0b072551c093b632cd0854e51a7dfb736de677d567cac8cc2d7c7564736f6c634300081c0033",
  "linkReferences": {},
  "deployedLinkReferences": {}
}