{
  "_format": "hh-sol-artifact-1",
  "contractName": "RugAirdrop",
  "sourceName": "contracts/RugAirdrop.sol",
  "abi": [
    {
      "inputs": [
        {
          "internalType": "address",
          "name": "_nftContract",
          "type": "address"
        }
      ],
      "stateMutability": "nonpayable",
      "type": "constructor"
    },
    {
      "inputs": [
        {
          "internalType": "address",
          "name": "owner",
          "type": "address"
        }
      ],
      "name": "OwnableInvalidOwner",
      "type": "error"
    },
    {
      "inputs": [
        {
          "internalType": "address",
          "name": "account",
          "type": "address"
        }
      ],
      "name": "OwnableUnauthorizedAccount",
      "type": "error"
    },
    {
      "anonymous": false,
      "inputs": [
        {
          "indexed": false,
          "internalType": "bool",
          "name": "isMaintaining",
          "type": "bool"
        }
      ],
      "name": "MaintenanceUpdated",
      "type": "event"
    },
    {
      "anonymous": false,
      "inputs": [
        {
          "indexed": true,
          "internalType": "address",
          "name": "moderator",
          "type": "address"
        }
      ],
      "name": "ModeratorAdded",
      "type": "event"
    },
    {
      "anonymous": false,
      "inputs": [
        {
          "indexed": true,
          "internalType": "address",
          "name": "moderator",
          "type": "address"
        }
      ],
      "name": "ModeratorRemoved",
      "type": "event"
    },
    {
      "anonymous": false,
      "inputs": [
        {
          "indexed": true,
          "internalType": "address",
          "name": "previousOwner",
          "type": "address"
        },
        {
          "indexed": true,
          "internalType": "address",
          "name": "newOwner",
          "type": "address"
        }
      ],
      "name": "OwnershipTransferred",
      "type": "event"
    },
    {
      "inputs": [
        {
          "internalType": "address[]",
          "name": "recipients",
          "type": "address[]"
        }
      ],
      "name": "Airdrop",
      "outputs": [],
      "stateMutability": "nonpayable",
      "type": "function"
    },
    {
      "inputs": [
        {
          "internalType": "address",
          "name": "_newModerator",
          "type": "address"
        }
      ],
      "name": "addModerator",
      "outputs": [],
      "stateMutability": "nonpayable",
      "type": "function"
    },
    {
      "inputs": [],
      "name": "isMaintaining",
      "outputs": [
        {
          "internalType": "bool",
          "name": "",
          "type": "bool"
        }
      ],
      "stateMutability": "view",
      "type": "function"
    },
    {
      "inputs": [
        {
          "internalType": "address",
          "name": "",
          "type": "address"
        }
      ],
      "name": "moderators",
      "outputs": [
        {
          "internalType": "bool",
          "name": "",
          "type": "bool"
        }
      ],
      "stateMutability": "view",
      "type": "function"
    },
    {
      "inputs": [],
      "name": "nftContract",
      "outputs": [
        {
          "internalType": "contract Rug",
          "name": "",
          "type": "address"
        }
      ],
      "stateMutability": "view",
      "type": "function"
    },
    {
      "inputs": [],
      "name": "owner",
      "outputs": [
        {
          "internalType": "address",
          "name": "",
          "type": "address"
        }
      ],
      "stateMutability": "view",
      "type": "function"
    },
    {
      "inputs": [
        {
          "internalType": "address",
          "name": "_moderator",
          "type": "address"
        }
      ],
      "name": "removeModerator",
      "outputs": [],
      "stateMutability": "nonpayable",
      "type": "function"
    },
    {
      "inputs": [],
      "name": "renounceOwnership",
      "outputs": [],
      "stateMutability": "nonpayable",
      "type": "function"
    },
    {
      "inputs": [],
      "name": "totalModerators",
      "outputs": [
        {
          "internalType": "uint16",
          "name": "",
          "type": "uint16"
        }
      ],
      "stateMutability": "view",
      "type": "function"
    },
    {
      "inputs": [
        {
          "internalType": "address",
          "name": "newOwner",
          "type": "address"
        }
      ],
      "name": "transferOwnership",
      "outputs": [],
      "stateMutability": "nonpayable",
      "type": "function"
    },
    {
      "inputs": [
        {
          "internalType": "bool",
          "name": "_isMaintaining",
          "type": "bool"
        }
      ],
      "name": "updateMaintaining",
      "outputs": [],
      "stateMutability": "nonpayable",
      "type": "function"
    }
  ],
  "bytecode": "0x608060405260008060146101000a81548161ffff021916908361ffff1602179055506000600260006101000a81548160ff02191690831515021790555034801561004857600080fd5b50604051611223380380611223833981810160405281019061006a919061025b565b33600073ffffffffffffffffffffffffffffffffffffffff168173ffffffffffffffffffffffffffffffffffffffff16036100dd5760006040517f1e4fbdf70000000000000000000000000000000000000000000000000000000081526004016100d49190610297565b60405180910390fd5b6100ec8161013460201b60201c565b5080600260016101000a81548173ffffffffffffffffffffffffffffffffffffffff021916908373ffffffffffffffffffffffffffffffffffffffff160217905550506102b2565b60008060009054906101000a900473ffffffffffffffffffffffffffffffffffffffff169050816000806101000a81548173ffffffffffffffffffffffffffffffffffffffff021916908373ffffffffffffffffffffffffffffffffffffffff1602179055508173ffffffffffffffffffffffffffffffffffffffff168173ffffffffffffffffffffffffffffffffffffffff167f8be0079c531659141344cd1fd0a4f28419497f9722a3daafe3b4186f6b6457e060405160405180910390a35050565b600080fd5b600073ffffffffffffffffffffffffffffffffffffffff82169050919050565b6000610228826101fd565b9050919050565b6102388161021d565b811461024357600080fd5b50565b6000815190506102558161022f565b92915050565b600060208284031215610271576102706101f8565b5b600061027f84828501610246565b91505092915050565b6102918161021d565b82525050565b60006020820190506102ac6000830184610288565b92915050565b610f62806102c16000396000f3fe608060405234801561001057600080fd5b50600436106100a95760003560e01c8063b532e4cb11610071578063b532e4cb14610140578063d32ca9d21461015c578063d56d229d14610178578063ece8c31c14610196578063ee4e4416146101b2578063f2fde38b146101d0576100a9565b806314d0f1ba146100ae5780634efb023e146100de578063715018a6146100fc578063869d785f146101065780638da5cb5b14610122575b600080fd5b6100c860048036038101906100c39190610a81565b6101ec565b6040516100d59190610ac9565b60405180910390f35b6100e661020c565b6040516100f39190610b01565b60405180910390f35b610104610220565b005b610120600480360381019061011b9190610a81565b610234565b005b61012a6103d6565b6040516101379190610b2b565b60405180910390f35b61015a60048036038101906101559190610a81565b6103ff565b005b61017660048036038101906101719190610b72565b61059f565b005b6101806105fb565b60405161018d9190610bfe565b60405180910390f35b6101b060048036038101906101ab9190610c7e565b610621565b005b6101ba61082d565b6040516101c79190610ac9565b60405180910390f35b6101ea60048036038101906101e59190610a81565b610840565b005b60016020528060005260406000206000915054906101000a900460ff1681565b600060149054906101000a900461ffff1681565b6102286108c6565b610232600061094d565b565b61023c6108c6565b600073ffffffffffffffffffffffffffffffffffffffff168173ffffffffffffffffffffffffffffffffffffffff16036102ab576040517f08c379a00000000000000000000000000000000000000000000000000000000081526004016102a290610d28565b60405180910390fd5b600160008273ffffffffffffffffffffffffffffffffffffffff1673ffffffffffffffffffffffffffffffffffffffff16815260200190815260200160002060009054906101000a900460ff16156103d3576000600160008373ffffffffffffffffffffffffffffffffffffffff1673ffffffffffffffffffffffffffffffffffffffff16815260200190815260200160002060006101000a81548160ff0219169083151502179055506001600060148282829054906101000a900461ffff166103759190610d77565b92506101000a81548161ffff021916908361ffff1602179055508073ffffffffffffffffffffffffffffffffffffffff167f7a9f1e23d5426b34819d173153d59084cc3578d5a129b80bb27df683ac6b227860405160405180910390a25b50565b60008060009054906101000a900473ffffffffffffffffffffffffffffffffffffffff16905090565b6104076108c6565b600073ffffffffffffffffffffffffffffffffffffffff168173ffffffffffffffffffffffffffffffffffffffff1603610476576040517f08c379a000000000000000000000000000000000000000000000000000000000815260040161046d90610d28565b60405180910390fd5b600160008273ffffffffffffffffffffffffffffffffffffffff1673ffffffffffffffffffffffffffffffffffffffff16815260200190815260200160002060009054906101000a900460ff1661059c5760018060008373ffffffffffffffffffffffffffffffffffffffff1673ffffffffffffffffffffffffffffffffffffffff16815260200190815260200160002060006101000a81548160ff0219169083151502179055506001600060148282829054906101000a900461ffff1661053e9190610dad565b92506101000a81548161ffff021916908361ffff1602179055508073ffffffffffffffffffffffffffffffffffffffff167fd378ad41c1a753fd1ba9ec0fcd7970526c175b68545b4a02d6d15e7606fe359660405160405180910390a25b50565b6105a76108c6565b80600260006101000a81548160ff0219169083151502179055507fb7b4d1364c10f8bcda04d589785b0aaeb7f8b526f36a6df41212357c4f8297e5816040516105f09190610ac9565b60405180910390a150565b600260019054906101000a900473ffffffffffffffffffffffffffffffffffffffff1681565b6106296103d6565b73ffffffffffffffffffffffffffffffffffffffff16610647610a11565b73ffffffffffffffffffffffffffffffffffffffff1614806106b9575060016000610670610a11565b73ffffffffffffffffffffffffffffffffffffffff1673ffffffffffffffffffffffffffffffffffffffff16815260200190815260200160002060009054906101000a900460ff165b6106f8576040517f08c379a00000000000000000000000000000000000000000000000000000000081526004016106ef90610e2f565b60405180910390fd5b600260009054906101000a900460ff1615610748576040517f08c379a000000000000000000000000000000000000000000000000000000000815260040161073f90610e9b565b60405180910390fd5b60005b8282905081101561082857600260019054906101000a900473ffffffffffffffffffffffffffffffffffffffff1673ffffffffffffffffffffffffffffffffffffffff16637b0067748484848181106107a7576107a6610ebb565b5b90506020020160208101906107bc9190610a81565b6040518263ffffffff1660e01b81526004016107d89190610b2b565b6020604051808303816000875af192505050801561081457506040513d601f19601f820116820180604052508101906108119190610eff565b60015b1561081b57505b808060010191505061074b565b505050565b600260009054906101000a900460ff1681565b6108486108c6565b600073ffffffffffffffffffffffffffffffffffffffff168173ffffffffffffffffffffffffffffffffffffffff16036108ba5760006040517f1e4fbdf70000000000000000000000000000000000000000000000000000000081526004016108b19190610b2b565b60405180910390fd5b6108c38161094d565b50565b6108ce610a11565b73ffffffffffffffffffffffffffffffffffffffff166108ec6103d6565b73ffffffffffffffffffffffffffffffffffffffff161461094b5761090f610a11565b6040517f118cdaa70000000000000000000000000000000000000000000000000000000081526004016109429190610b2b565b60405180910390fd5b565b60008060009054906101000a900473ffffffffffffffffffffffffffffffffffffffff169050816000806101000a81548173ffffffffffffffffffffffffffffffffffffffff021916908373ffffffffffffffffffffffffffffffffffffffff1602179055508173ffffffffffffffffffffffffffffffffffffffff168173ffffffffffffffffffffffffffffffffffffffff167f8be0079c531659141344cd1fd0a4f28419497f9722a3daafe3b4186f6b6457e060405160405180910390a35050565b600033905090565b600080fd5b600080fd5b600073ffffffffffffffffffffffffffffffffffffffff82169050919050565b6000610a4e82610a23565b9050919050565b610a5e81610a43565b8114610a6957600080fd5b50565b600081359050610a7b81610a55565b92915050565b600060208284031215610a9757610a96610a19565b5b6000610aa584828501610a6c565b91505092915050565b60008115159050919050565b610ac381610aae565b82525050565b6000602082019050610ade6000830184610aba565b92915050565b600061ffff82169050919050565b610afb81610ae4565b82525050565b6000602082019050610b166000830184610af2565b92915050565b610b2581610a43565b82525050565b6000602082019050610b406000830184610b1c565b92915050565b610b4f81610aae565b8114610b5a57600080fd5b50565b600081359050610b6c81610b46565b92915050565b600060208284031215610b8857610b87610a19565b5b6000610b9684828501610b5d565b91505092915050565b6000819050919050565b6000610bc4610bbf610bba84610a23565b610b9f565b610a23565b9050919050565b6000610bd682610ba9565b9050919050565b6000610be882610bcb565b9050919050565b610bf881610bdd565b82525050565b6000602082019050610c136000830184610bef565b92915050565b600080fd5b600080fd5b600080fd5b60008083601f840112610c3e57610c3d610c19565b5b8235905067ffffffffffffffff811115610c5b57610c5a610c1e565b5b602083019150836020820283011115610c7757610c76610c23565b5b9250929050565b60008060208385031215610c9557610c94610a19565b5b600083013567ffffffffffffffff811115610cb357610cb2610a1e565b5b610cbf85828601610c28565b92509250509250929050565b600082825260208201905092915050565b7f496e76616c6964206d6f64657261746f72206164647265737300000000000000600082015250565b6000610d12601983610ccb565b9150610d1d82610cdc565b602082019050919050565b60006020820190508181036000830152610d4181610d05565b9050919050565b7f4e487b7100000000000000000000000000000000000000000000000000000000600052601160045260246000fd5b6000610d8282610ae4565b9150610d8d83610ae4565b9250828203905061ffff811115610da757610da6610d48565b5b92915050565b6000610db882610ae4565b9150610dc383610ae4565b9250828201905061ffff811115610ddd57610ddc610d48565b5b92915050565b7f5265737472696374656420416363657373000000000000000000000000000000600082015250565b6000610e19601183610ccb565b9150610e2482610de3565b602082019050919050565b60006020820190508181036000830152610e4881610e0c565b9050919050565b7f436f6e747261637420756e646572206d61696e74656e616e6365000000000000600082015250565b6000610e85601a83610ccb565b9150610e9082610e4f565b602082019050919050565b60006020820190508181036000830152610eb481610e78565b9050919050565b7f4e487b7100000000000000000000000000000000000000000000000000000000600052603260045260246000fd5b600081519050610ef981610b46565b92915050565b600060208284031215610f1557610f14610a19565b5b6000610f2384828501610eea565b9150509291505056fea2646970667358221220b35b11406e91d98b89109b59bcfbc7506102f9d54fe43d5d1ff7af46ed8ae50f64736f6c634300081c0033",
  "linkReferences": {},
  "deployedLinkReferences": {}
}