{
  "_format": "hh-sol-artifact-1",
  "contractName": "Rug",
  "sourceName": "contracts/Rug.sol",
  "abi": [
    {
      "inputs": [
        {
          "internalType": "string",
          "name": "baseURI",
          "type": "string"
        }
      ],
      "stateMutability": "nonpayable",
      "type": "constructor"
    },
    {
      "inputs": [
        {
          "internalType": "address",
          "name": "sender",
          "type": "address"
        },
        {
          "internalType": "uint256",
          "name": "tokenId",
          "type": "uint256"
        },
        {
          "internalType": "address",
          "name": "owner",
          "type": "address"
        }
      ],
      "name": "ERC721IncorrectOwner",
      "type": "error"
    },
    {
      "inputs": [
        {
          "internalType": "address",
          "name": "operator",
          "type": "address"
        },
        {
          "internalType": "uint256",
          "name": "tokenId",
          "type": "uint256"
        }
      ],
      "name": "ERC721InsufficientApproval",
      "type": "error"
    },
    {
      "inputs": [
        {
          "internalType": "address",
          "name": "approver",
          "type": "address"
        }
      ],
      "name": "ERC721InvalidApprover",
      "type": "error"
    },
    {
      "inputs": [
        {
          "internalType": "address",
          "name": "operator",
          "type": "address"
        }
      ],
      "name": "ERC721InvalidOperator",
      "type": "error"
    },
    {
      "inputs": [
        {
          "internalType": "address",
          "name": "owner",
          "type": "address"
        }
      ],
      "name": "ERC721InvalidOwner",
      "type": "error"
    },
    {
      "inputs": [
        {
          "internalType": "address",
          "name": "receiver",
          "type": "address"
        }
      ],
      "name": "ERC721InvalidReceiver",
      "type": "error"
    },
    {
      "inputs": [
        {
          "internalType": "address",
          "name": "sender",
          "type": "address"
        }
      ],
      "name": "ERC721InvalidSender",
      "type": "error"
    },
    {
      "inputs": [
        {
          "internalType": "uint256",
          "name": "tokenId",
          "type": "uint256"
        }
      ],
      "name": "ERC721NonexistentToken",
      "type": "error"
    },
    {
      "inputs": [
        {
          "internalType": "address",
          "name": "owner",
          "type": "address"
        }
      ],
      "name": "OwnableInvalidOwner",
      "type": "error"
    },
    {
      "inputs": [
        {
          "internalType": "address",
          "name": "account",
          "type": "address"
        }
      ],
      "name": "OwnableUnauthorizedAccount",
      "type": "error"
    },
    {
      "anonymous": false,
      "inputs": [
        {
          "indexed": true,
          "internalType": "address",
          "name": "owner",
          "type": "address"
        },
        {
          "indexed": true,
          "internalType": "address",
          "name": "approved",
          "type": "address"
        },
        {
          "indexed": true,
          "internalType": "uint256",
          "name": "tokenId",
          "type": "uint256"
        }
      ],
      "name": "Approval",
      "type": "event"
    },
    {
      "anonymous": false,
      "inputs": [
        {
          "indexed": true,
          "internalType": "address",
          "name": "owner",
          "type": "address"
        },
        {
          "indexed": true,
          "internalType": "address",
          "name": "operator",
          "type": "address"
        },
        {
          "indexed": false,
          "internalType": "bool",
          "name": "approved",
          "type": "bool"
        }
      ],
      "name": "ApprovalForAll",
      "type": "event"
    },
    {
      "anonymous": false,
      "inputs": [
        {
          "indexed": false,
          "internalType": "uint256",
          "name": "fromTokenId",
          "type": "uint256"
        },
        {
          "indexed": false,
          "internalType": "uint256",
          "name": "toTokenId",
          "type": "uint256"
        }
      ],
      "name": "BatchMetadataUpdate",
      "type": "event"
    },
    {
      "anonymous": false,
      "inputs": [
        {
          "indexed": false,
          "internalType": "bool",
          "name": "isMaintaining",
          "type": "bool"
        }
      ],
      "name": "MaintenanceUpdated",
      "type": "event"
    },
    {
      "anonymous": false,
      "inputs": [
        {
          "indexed": true,
          "internalType": "address",
          "name": "moderator",
          "type": "address"
        }
      ],
      "name": "ModeratorAdded",
      "type": "event"
    },
    {
      "anonymous": false,
      "inputs": [
        {
          "indexed": true,
          "internalType": "address",
          "name": "moderator",
          "type": "address"
        }
      ],
      "name": "ModeratorRemoved",
      "type": "event"
    },
    {
      "anonymous": false,
      "inputs": [
        {
          "indexed": true,
          "internalType": "address",
          "name": "previousOwner",
          "type": "address"
        },
        {
          "indexed": true,
          "internalType": "address",
          "name": "newOwner",
          "type": "address"
        }
      ],
      "name": "OwnershipTransferred",
      "type": "event"
    },
    {
      "anonymous": false,
      "inputs": [
        {
          "indexed": true,
          "internalType": "address",
          "name": "owner",
          "type": "address"
        },
        {
          "indexed": false,
          "internalType": "uint256",
          "name": "tokenId",
          "type": "uint256"
        }
      ],
      "name": "TokenMinted",
      "type": "event"
    },
    {
      "anonymous": false,
      "inputs": [
        {
          "indexed": true,
          "internalType": "address",
          "name": "from",
          "type": "address"
        },
        {
          "indexed": true,
          "internalType": "address",
          "name": "to",
          "type": "address"
        },
        {
          "indexed": true,
          "internalType": "uint256",
          "name": "tokenId",
          "type": "uint256"
        }
      ],
      "name": "Transfer",
      "type": "event"
    },
    {
      "inputs": [],
      "name": "MAX_CAP",
      "outputs": [
        {
          "internalType": "uint256",
          "name": "",
          "type": "uint256"
        }
      ],
      "stateMutability": "view",
      "type": "function"
    },
    {
      "inputs": [],
      "name": "START_TOKEN",
      "outputs": [
        {
          "internalType": "uint256",
          "name": "",
          "type": "uint256"
        }
      ],
      "stateMutability": "view",
      "type": "function"
    },
    {
      "inputs": [
        {
          "internalType": "address",
          "name": "_newModerator",
          "type": "address"
        }
      ],
      "name": "addModerator",
      "outputs": [],
      "stateMutability": "nonpayable",
      "type": "function"
    },
    {
      "inputs": [
        {
          "internalType": "address",
          "name": "to",
          "type": "address"
        },
        {
          "internalType": "uint256",
          "name": "tokenId",
          "type": "uint256"
        }
      ],
      "name": "approve",
      "outputs": [],
      "stateMutability": "nonpayable",
      "type": "function"
    },
    {
      "inputs": [
        {
          "internalType": "address",
          "name": "owner",
          "type": "address"
        }
      ],
      "name": "balanceOf",
      "outputs": [
        {
          "internalType": "uint256",
          "name": "",
          "type": "uint256"
        }
      ],
      "stateMutability": "view",
      "type": "function"
    },
    {
      "inputs": [
        {
          "internalType": "uint256",
          "name": "tokenId",
          "type": "uint256"
        }
      ],
      "name": "getApproved",
      "outputs": [
        {
          "internalType": "address",
          "name": "",
          "type": "address"
        }
      ],
      "stateMutability": "view",
      "type": "function"
    },
    {
      "inputs": [
        {
          "internalType": "address",
          "name": "owner",
          "type": "address"
        },
        {
          "internalType": "address",
          "name": "operator",
          "type": "address"
        }
      ],
      "name": "isApprovedForAll",
      "outputs": [
        {
          "internalType": "bool",
          "name": "",
          "type": "bool"
        }
      ],
      "stateMutability": "view",
      "type": "function"
    },
    {
      "inputs": [],
      "name": "isMaintaining",
      "outputs": [
        {
          "internalType": "bool",
          "name": "",
          "type": "bool"
        }
      ],
      "stateMutability": "view",
      "type": "function"
    },
    {
      "inputs": [],
      "name": "itemsMintedCount",
      "outputs": [
        {
          "internalType": "uint256",
          "name": "",
          "type": "uint256"
        }
      ],
      "stateMutability": "view",
      "type": "function"
    },
    {
      "inputs": [
        {
          "internalType": "address",
          "name": "_owner",
          "type": "address"
        }
      ],
      "name": "mintNextToken",
      "outputs": [
        {
          "internalType": "bool",
          "name": "",
          "type": "bool"
        }
      ],
      "stateMutability": "nonpayable",
      "type": "function"
    },
    {
      "inputs": [
        {
          "internalType": "address",
          "name": "",
          "type": "address"
        }
      ],
      "name": "moderators",
      "outputs": [
        {
          "internalType": "bool",
          "name": "",
          "type": "bool"
        }
      ],
      "stateMutability": "view",
      "type": "function"
    },
    {
      "inputs": [],
      "name": "name",
      "outputs": [
        {
          "internalType": "string",
          "name": "",
          "type": "string"
        }
      ],
      "stateMutability": "view",
      "type": "function"
    },
    {
      "inputs": [],
      "name": "owner",
      "outputs": [
        {
          "internalType": "address",
          "name": "",
          "type": "address"
        }
      ],
      "stateMutability": "view",
      "type": "function"
    },
    {
      "inputs": [
        {
          "internalType": "uint256",
          "name": "tokenId",
          "type": "uint256"
        }
      ],
      "name": "ownerOf",
      "outputs": [
        {
          "internalType": "address",
          "name": "",
          "type": "address"
        }
      ],
      "stateMutability": "view",
      "type": "function"
    },
    {
      "inputs": [
        {
          "internalType": "address",
          "name": "_moderator",
          "type": "address"
        }
      ],
      "name": "removeModerator",
      "outputs": [],
      "stateMutability": "nonpayable",
      "type": "function"
    },
    {
      "inputs": [],
      "name": "renounceOwnership",
      "outputs": [],
      "stateMutability": "nonpayable",
      "type": "function"
    },
    {
      "inputs": [
        {
          "internalType": "address",
          "name": "from",
          "type": "address"
        },
        {
          "internalType": "address",
          "name": "to",
          "type": "address"
        },
        {
          "internalType": "uint256",
          "name": "tokenId",
          "type": "uint256"
        }
      ],
      "name": "safeTransferFrom",
      "outputs": [],
      "stateMutability": "nonpayable",
      "type": "function"
    },
    {
      "inputs": [
        {
          "internalType": "address",
          "name": "from",
          "type": "address"
        },
        {
          "internalType": "address",
          "name": "to",
          "type": "address"
        },
        {
          "internalType": "uint256",
          "name": "tokenId",
          "type": "uint256"
        },
        {
          "internalType": "bytes",
          "name": "data",
          "type": "bytes"
        }
      ],
      "name": "safeTransferFrom",
      "outputs": [],
      "stateMutability": "nonpayable",
      "type": "function"
    },
    {
      "inputs": [
        {
          "internalType": "address",
          "name": "operator",
          "type": "address"
        },
        {
          "internalType": "bool",
          "name": "approved",
          "type": "bool"
        }
      ],
      "name": "setApprovalForAll",
      "outputs": [],
      "stateMutability": "nonpayable",
      "type": "function"
    },
    {
      "inputs": [
        {
          "internalType": "string",
          "name": "baseURI",
          "type": "string"
        }
      ],
      "name": "setBaseURI",
      "outputs": [],
      "stateMutability": "nonpayable",
      "type": "function"
    },
    {
      "inputs": [
        {
          "internalType": "bytes4",
          "name": "interfaceId",
          "type": "bytes4"
        }
      ],
      "name": "supportsInterface",
      "outputs": [
        {
          "internalType": "bool",
          "name": "",
          "type": "bool"
        }
      ],
      "stateMutability": "view",
      "type": "function"
    },
    {
      "inputs": [],
      "name": "symbol",
      "outputs": [
        {
          "internalType": "string",
          "name": "",
          "type": "string"
        }
      ],
      "stateMutability": "view",
      "type": "function"
    },
    {
      "inputs": [
        {
          "internalType": "uint256",
          "name": "tokenId",
          "type": "uint256"
        }
      ],
      "name": "tokenURI",
      "outputs": [
        {
          "internalType": "string",
          "name": "",
          "type": "string"
        }
      ],
      "stateMutability": "view",
      "type": "function"
    },
    {
      "inputs": [],
      "name": "totalModerators",
      "outputs": [
        {
          "internalType": "uint16",
          "name": "",
          "type": "uint16"
        }
      ],
      "stateMutability": "view",
      "type": "function"
    },
    {
      "inputs": [
        {
          "internalType": "address",
          "name": "from",
          "type": "address"
        },
        {
          "internalType": "address",
          "name": "to",
          "type": "address"
        },
        {
          "internalType": "uint256",
          "name": "tokenId",
          "type": "uint256"
        }
      ],
      "name": "transferFrom",
      "outputs": [],
      "stateMutability": "nonpayable",
      "type": "function"
    },
    {
      "inputs": [
        {
          "internalType": "address",
          "name": "newOwner",
          "type": "address"
        }
      ],
      "name": "transferOwnership",
      "outputs": [],
      "stateMutability": "nonpayable",
      "type": "function"
    },
    {
      "inputs": [
        {
          "internalType": "bool",
          "name": "_isMaintaining",
          "type": "bool"
        }
      ],
      "name": "updateMaintaining",
      "outputs": [],
      "stateMutability": "nonpayable",
      "type": "function"
    }
  ],
  "bytecode": "0x60806040526000600660146101000a81548161ffff021916908361ffff1602179055506000600860006101000a81548160ff021916908315150217905550600060095534801561004e57600080fd5b5060405161376f38038061376f8339818101604052810190610070919061041e565b336040518060400160405280600381526020017f52756700000000000000000000000000000000000000000000000000000000008152506040518060400160405280600381526020017f525547000000000000000000000000000000000000000000000000000000000081525081600090816100ec9190610688565b5080600190816100fc9190610688565b505050600073ffffffffffffffffffffffffffffffffffffffff168173ffffffffffffffffffffffffffffffffffffffff16036101715760006040517f1e4fbdf7000000000000000000000000000000000000000000000000000000008152600401610168919061079b565b60405180910390fd5b610180816101e360201b60201c565b5060008151116101c5576040517f08c379a00000000000000000000000000000000000000000000000000000000081526004016101bc90610813565b60405180910390fd5b80600a90816101d49190610688565b50600160098190555050610833565b6000600660009054906101000a900473ffffffffffffffffffffffffffffffffffffffff16905081600660006101000a81548173ffffffffffffffffffffffffffffffffffffffff021916908373ffffffffffffffffffffffffffffffffffffffff1602179055508173ffffffffffffffffffffffffffffffffffffffff168173ffffffffffffffffffffffffffffffffffffffff167f8be0079c531659141344cd1fd0a4f28419497f9722a3daafe3b4186f6b6457e060405160405180910390a35050565b6000604051905090565b600080fd5b600080fd5b600080fd5b600080fd5b6000601f19601f8301169050919050565b7f4e487b7100000000000000000000000000000000000000000000000000000000600052604160045260246000fd5b610310826102c7565b810181811067ffffffffffffffff8211171561032f5761032e6102d8565b5b80604052505050565b60006103426102a9565b905061034e8282610307565b919050565b600067ffffffffffffffff82111561036e5761036d6102d8565b5b610377826102c7565b9050602081019050919050565b60005b838110156103a2578082015181840152602081019050610387565b60008484015250505050565b60006103c16103bc84610353565b610338565b9050828152602081018484840111156103dd576103dc6102c2565b5b6103e8848285610384565b509392505050565b600082601f830112610405576104046102bd565b5b81516104158482602086016103ae565b91505092915050565b600060208284031215610434576104336102b3565b5b600082015167ffffffffffffffff811115610452576104516102b8565b5b61045e848285016103f0565b91505092915050565b600081519050919050565b7f4e487b7100000000000000000000000000000000000000000000000000000000600052602260045260246000fd5b600060028204905060018216806104b957607f821691505b6020821081036104cc576104cb610472565b5b50919050565b60008190508160005260206000209050919050565b60006020601f8301049050919050565b600082821b905092915050565b6000600883026105347fffffffffffffffffffffffffffffffffffffffffffffffffffffffffffffffff826104f7565b61053e86836104f7565b95508019841693508086168417925050509392505050565b6000819050919050565b6000819050919050565b600061058561058061057b84610556565b610560565b610556565b9050919050565b6000819050919050565b61059f8361056a565b6105b36105ab8261058c565b848454610504565b825550505050565b600090565b6105c86105bb565b6105d3818484610596565b505050565b5b818110156105f7576105ec6000826105c0565b6001810190506105d9565b5050565b601f82111561063c5761060d816104d2565b610616846104e7565b81016020851015610625578190505b610639610631856104e7565b8301826105d8565b50505b505050565b600082821c905092915050565b600061065f60001984600802610641565b1980831691505092915050565b6000610678838361064e565b9150826002028217905092915050565b61069182610467565b67ffffffffffffffff8111156106aa576106a96102d8565b5b6106b482546104a1565b6106bf8282856105fb565b600060209050601f8311600181146106f257600084156106e0578287015190505b6106ea858261066c565b865550610752565b601f198416610700866104d2565b60005b8281101561072857848901518255600182019150602085019450602081019050610703565b868310156107455784890151610741601f89168261064e565b8355505b6001600288020188555050505b505050505050565b600073ffffffffffffffffffffffffffffffffffffffff82169050919050565b60006107858261075a565b9050919050565b6107958161077a565b82525050565b60006020820190506107b0600083018461078c565b92915050565b600082825260208201905092915050565b7f496e76616c696420626173655552490000000000000000000000000000000000600082015250565b60006107fd600f836107b6565b9150610808826107c7565b602082019050919050565b6000602082019050818103600083015261082c816107f0565b9050919050565b612f2d806108426000396000f3fe608060405234801561001057600080fd5b50600436106101a95760003560e01c80637b006774116100f9578063c87b56dd11610097578063d669e1d411610071578063d669e1d4146104b8578063e985e9c5146104d6578063ee4e441614610506578063f2fde38b14610524576101a9565b8063c87b56dd1461044e578063d1d75a021461047e578063d32ca9d21461049c576101a9565b806395d89b41116100d357806395d89b41146103dc578063a22cb465146103fa578063b532e4cb14610416578063b88d4fde14610432576101a9565b80637b00677414610372578063869d785f146103a25780638da5cb5b146103be576101a9565b806342842e0e116101665780636352211e116101405780636352211e146102ea578063702b067c1461031a57806370a0823114610338578063715018a614610368576101a9565b806342842e0e146102945780634efb023e146102b057806355f804b3146102ce576101a9565b806301ffc9a7146101ae57806306fdde03146101de578063081812fc146101fc578063095ea7b31461022c57806314d0f1ba1461024857806323b872dd14610278575b600080fd5b6101c860048036038101906101c39190612071565b610540565b6040516101d591906120b9565b60405180910390f35b6101e6610622565b6040516101f39190612164565b60405180910390f35b610216600480360381019061021191906121bc565b6106b4565b604051610223919061222a565b60405180910390f35b61024660048036038101906102419190612271565b6106d0565b005b610262600480360381019061025d91906122b1565b6106e6565b60405161026f91906120b9565b60405180910390f35b610292600480360381019061028d91906122de565b610706565b005b6102ae60048036038101906102a991906122de565b610808565b005b6102b8610828565b6040516102c5919061234e565b60405180910390f35b6102e860048036038101906102e3919061249e565b61083c565b005b61030460048036038101906102ff91906121bc565b6108d6565b604051610311919061222a565b60405180910390f35b6103226108e8565b60405161032f91906124f6565b60405180910390f35b610352600480360381019061034d91906122b1565b6108ed565b60405161035f91906124f6565b60405180910390f35b6103706109a7565b005b61038c600480360381019061038791906122b1565b6109bb565b60405161039991906120b9565b60405180910390f35b6103bc60048036038101906103b791906122b1565b610a83565b005b6103c6610c25565b6040516103d3919061222a565b60405180910390f35b6103e4610c4f565b6040516103f19190612164565b60405180910390f35b610414600480360381019061040f919061253d565b610ce1565b005b610430600480360381019061042b91906122b1565b610cf7565b005b61044c6004803603810190610447919061261e565b610e98565b005b610468600480360381019061046391906121bc565b610ebd565b6040516104759190612164565b60405180910390f35b610486610f6e565b60405161049391906124f6565b60405180910390f35b6104b660048036038101906104b191906126a1565b610f74565b005b6104c0610fd0565b6040516104cd91906124f6565b60405180910390f35b6104f060048036038101906104eb91906126ce565b610fd5565b6040516104fd91906120b9565b60405180910390f35b61050e611069565b60405161051b91906120b9565b60405180910390f35b61053e600480360381019061053991906122b1565b61107c565b005b60007f80ac58cd000000000000000000000000000000000000000000000000000000007bffffffffffffffffffffffffffffffffffffffffffffffffffffffff1916827bffffffffffffffffffffffffffffffffffffffffffffffffffffffff1916148061060b57507f5b5e139f000000000000000000000000000000000000000000000000000000007bffffffffffffffffffffffffffffffffffffffffffffffffffffffff1916827bffffffffffffffffffffffffffffffffffffffffffffffffffffffff1916145b8061061b575061061a82611102565b5b9050919050565b6060600080546106319061273d565b80601f016020809104026020016040519081016040528092919081815260200182805461065d9061273d565b80156106aa5780601f1061067f576101008083540402835291602001916106aa565b820191906000526020600020905b81548152906001019060200180831161068d57829003601f168201915b5050505050905090565b60006106bf8261116c565b506106c9826111f4565b9050919050565b6106e282826106dd611231565b611239565b5050565b60076020528060005260406000206000915054906101000a900460ff1681565b600073ffffffffffffffffffffffffffffffffffffffff168273ffffffffffffffffffffffffffffffffffffffff16036107785760006040517f64a0ae9200000000000000000000000000000000000000000000000000000000815260040161076f919061222a565b60405180910390fd5b600061078c8383610787611231565b61124b565b90508373ffffffffffffffffffffffffffffffffffffffff168173ffffffffffffffffffffffffffffffffffffffff1614610802578382826040517f64283d7b0000000000000000000000000000000000000000000000000000000081526004016107f99392919061276e565b60405180910390fd5b50505050565b61082383838360405180602001604052806000815250610e98565b505050565b600660149054906101000a900461ffff1681565b610844611465565b6000815111610888576040517f08c379a000000000000000000000000000000000000000000000000000000000815260040161087f906127f1565b60405180910390fd5b80600a908161089791906129bd565b507f6bd5c950a8d8df17f772f5af37cb3655737899cbf903264b9795592da439661c600160646040516108cb929190612a8f565b60405180910390a150565b60006108e18261116c565b9050919050565b600181565b60008073ffffffffffffffffffffffffffffffffffffffff168273ffffffffffffffffffffffffffffffffffffffff16036109605760006040517f89c62b64000000000000000000000000000000000000000000000000000000008152600401610957919061222a565b60405180910390fd5b600360008373ffffffffffffffffffffffffffffffffffffffff1673ffffffffffffffffffffffffffffffffffffffff168152602001908152602001600020549050919050565b6109af611465565b6109b960006114ec565b565b6000606460095410610a02576040517f08c379a00000000000000000000000000000000000000000000000000000000081526004016109f990612b04565b60405180910390fd5b60096000815480929190610a1590612b53565b919050555060006009549050610a2b83826115b2565b8273ffffffffffffffffffffffffffffffffffffffff167fb9144c96c86541f6fa89c9f2f02495cccf4b08cd6643e26d34ee00aa586558a882604051610a7191906124f6565b60405180910390a26001915050919050565b610a8b611465565b600073ffffffffffffffffffffffffffffffffffffffff168173ffffffffffffffffffffffffffffffffffffffff1603610afa576040517f08c379a0000000000000000000000000000000000000000000000000000000008152600401610af190612be7565b60405180910390fd5b600760008273ffffffffffffffffffffffffffffffffffffffff1673ffffffffffffffffffffffffffffffffffffffff16815260200190815260200160002060009054906101000a900460ff1615610c22576000600760008373ffffffffffffffffffffffffffffffffffffffff1673ffffffffffffffffffffffffffffffffffffffff16815260200190815260200160002060006101000a81548160ff0219169083151502179055506001600660148282829054906101000a900461ffff16610bc49190612c07565b92506101000a81548161ffff021916908361ffff1602179055508073ffffffffffffffffffffffffffffffffffffffff167f7a9f1e23d5426b34819d173153d59084cc3578d5a129b80bb27df683ac6b227860405160405180910390a25b50565b6000600660009054906101000a900473ffffffffffffffffffffffffffffffffffffffff16905090565b606060018054610c5e9061273d565b80601f0160208091040260200160405190810160405280929190818152602001828054610c8a9061273d565b8015610cd75780601f10610cac57610100808354040283529160200191610cd7565b820191906000526020600020905b815481529060010190602001808311610cba57829003601f168201915b5050505050905090565b610cf3610cec611231565b83836116ab565b5050565b610cff611465565b600073ffffffffffffffffffffffffffffffffffffffff168173ffffffffffffffffffffffffffffffffffffffff1603610d6e576040517f08c379a0000000000000000000000000000000000000000000000000000000008152600401610d6590612be7565b60405180910390fd5b600760008273ffffffffffffffffffffffffffffffffffffffff1673ffffffffffffffffffffffffffffffffffffffff16815260200190815260200160002060009054906101000a900460ff16610e95576001600760008373ffffffffffffffffffffffffffffffffffffffff1673ffffffffffffffffffffffffffffffffffffffff16815260200190815260200160002060006101000a81548160ff0219169083151502179055506001600660148282829054906101000a900461ffff16610e379190612c3d565b92506101000a81548161ffff021916908361ffff1602179055508073ffffffffffffffffffffffffffffffffffffffff167fd378ad41c1a753fd1ba9ec0fcd7970526c175b68545b4a02d6d15e7606fe359660405160405180910390a25b50565b610ea3848484610706565b610eb7610eae611231565b8585858561181a565b50505050565b6060600073ffffffffffffffffffffffffffffffffffffffff16610ee0836119cb565b73ffffffffffffffffffffffffffffffffffffffff1603610f36576040517f08c379a0000000000000000000000000000000000000000000000000000000008152600401610f2d90612ce5565b60405180910390fd5b610f3e611a08565b610f4783611a9a565b604051602001610f58929190612d8d565b6040516020818303038152906040529050919050565b60095481565b610f7c611465565b80600860006101000a81548160ff0219169083151502179055507fb7b4d1364c10f8bcda04d589785b0aaeb7f8b526f36a6df41212357c4f8297e581604051610fc591906120b9565b60405180910390a150565b606481565b6000600560008473ffffffffffffffffffffffffffffffffffffffff1673ffffffffffffffffffffffffffffffffffffffff16815260200190815260200160002060008373ffffffffffffffffffffffffffffffffffffffff1673ffffffffffffffffffffffffffffffffffffffff16815260200190815260200160002060009054906101000a900460ff16905092915050565b600860009054906101000a900460ff1681565b611084611465565b600073ffffffffffffffffffffffffffffffffffffffff168173ffffffffffffffffffffffffffffffffffffffff16036110f65760006040517f1e4fbdf70000000000000000000000000000000000000000000000000000000081526004016110ed919061222a565b60405180910390fd5b6110ff816114ec565b50565b60007f01ffc9a7000000000000000000000000000000000000000000000000000000007bffffffffffffffffffffffffffffffffffffffffffffffffffffffff1916827bffffffffffffffffffffffffffffffffffffffffffffffffffffffff1916149050919050565b600080611178836119cb565b9050600073ffffffffffffffffffffffffffffffffffffffff168173ffffffffffffffffffffffffffffffffffffffff16036111eb57826040517f7e2732890000000000000000000000000000000000000000000000000000000081526004016111e291906124f6565b60405180910390fd5b80915050919050565b60006004600083815260200190815260200160002060009054906101000a900473ffffffffffffffffffffffffffffffffffffffff169050919050565b600033905090565b6112468383836001611b68565b505050565b600080611257846119cb565b9050600073ffffffffffffffffffffffffffffffffffffffff168373ffffffffffffffffffffffffffffffffffffffff161461129957611298818486611d2d565b5b600073ffffffffffffffffffffffffffffffffffffffff168173ffffffffffffffffffffffffffffffffffffffff161461132a576112db600085600080611b68565b6001600360008373ffffffffffffffffffffffffffffffffffffffff1673ffffffffffffffffffffffffffffffffffffffff168152602001908152602001600020600082825403925050819055505b600073ffffffffffffffffffffffffffffffffffffffff168573ffffffffffffffffffffffffffffffffffffffff16146113ad576001600360008773ffffffffffffffffffffffffffffffffffffffff1673ffffffffffffffffffffffffffffffffffffffff168152602001908152602001600020600082825401925050819055505b846002600086815260200190815260200160002060006101000a81548173ffffffffffffffffffffffffffffffffffffffff021916908373ffffffffffffffffffffffffffffffffffffffff160217905550838573ffffffffffffffffffffffffffffffffffffffff168273ffffffffffffffffffffffffffffffffffffffff167fddf252ad1be2c89b69c2b068fc378daa952ba7f163c4a11628f55a4df523b3ef60405160405180910390a4809150509392505050565b61146d611231565b73ffffffffffffffffffffffffffffffffffffffff1661148b610c25565b73ffffffffffffffffffffffffffffffffffffffff16146114ea576114ae611231565b6040517f118cdaa70000000000000000000000000000000000000000000000000000000081526004016114e1919061222a565b60405180910390fd5b565b6000600660009054906101000a900473ffffffffffffffffffffffffffffffffffffffff16905081600660006101000a81548173ffffffffffffffffffffffffffffffffffffffff021916908373ffffffffffffffffffffffffffffffffffffffff1602179055508173ffffffffffffffffffffffffffffffffffffffff168173ffffffffffffffffffffffffffffffffffffffff167f8be0079c531659141344cd1fd0a4f28419497f9722a3daafe3b4186f6b6457e060405160405180910390a35050565b600073ffffffffffffffffffffffffffffffffffffffff168273ffffffffffffffffffffffffffffffffffffffff16036116245760006040517f64a0ae9200000000000000000000000000000000000000000000000000000000815260040161161b919061222a565b60405180910390fd5b60006116328383600061124b565b9050600073ffffffffffffffffffffffffffffffffffffffff168173ffffffffffffffffffffffffffffffffffffffff16146116a65760006040517f73c6ac6e00000000000000000000000000000000000000000000000000000000815260040161169d919061222a565b60405180910390fd5b505050565b600073ffffffffffffffffffffffffffffffffffffffff168273ffffffffffffffffffffffffffffffffffffffff160361171c57816040517f5b08ba18000000000000000000000000000000000000000000000000000000008152600401611713919061222a565b60405180910390fd5b80600560008573ffffffffffffffffffffffffffffffffffffffff1673ffffffffffffffffffffffffffffffffffffffff16815260200190815260200160002060008473ffffffffffffffffffffffffffffffffffffffff1673ffffffffffffffffffffffffffffffffffffffff16815260200190815260200160002060006101000a81548160ff0219169083151502179055508173ffffffffffffffffffffffffffffffffffffffff168373ffffffffffffffffffffffffffffffffffffffff167f17307eab39ab6107e8899845ad3d59bd9653f200f220920489ca2b5937696c318360405161180d91906120b9565b60405180910390a3505050565b60008373ffffffffffffffffffffffffffffffffffffffff163b11156119c4578273ffffffffffffffffffffffffffffffffffffffff1663150b7a02868685856040518563ffffffff1660e01b81526004016118799493929190612e11565b6020604051808303816000875af19250505080156118b557506040513d601f19601f820116820180604052508101906118b29190612e72565b60015b611939573d80600081146118e5576040519150601f19603f3d011682016040523d82523d6000602084013e6118ea565b606091505b50600081510361193157836040517f64a0ae92000000000000000000000000000000000000000000000000000000008152600401611928919061222a565b60405180910390fd5b805181602001fd5b63150b7a0260e01b7bffffffffffffffffffffffffffffffffffffffffffffffffffffffff1916817bffffffffffffffffffffffffffffffffffffffffffffffffffffffff1916146119c257836040517f64a0ae920000000000000000000000000000000000000000000000000000000081526004016119b9919061222a565b60405180910390fd5b505b5050505050565b60006002600083815260200190815260200160002060009054906101000a900473ffffffffffffffffffffffffffffffffffffffff169050919050565b6060600a8054611a179061273d565b80601f0160208091040260200160405190810160405280929190818152602001828054611a439061273d565b8015611a905780601f10611a6557610100808354040283529160200191611a90565b820191906000526020600020905b815481529060010190602001808311611a7357829003601f168201915b5050505050905090565b606060006001611aa984611df1565b01905060008167ffffffffffffffff811115611ac857611ac7612373565b5b6040519080825280601f01601f191660200182016040528015611afa5781602001600182028036833780820191505090505b509050600082602001820190505b600115611b5d578080600190039150507f3031323334353637383961626364656600000000000000000000000000000000600a86061a8153600a8581611b5157611b50612e9f565b5b04945060008503611b08575b819350505050919050565b8080611ba15750600073ffffffffffffffffffffffffffffffffffffffff168273ffffffffffffffffffffffffffffffffffffffff1614155b15611cd5576000611bb18461116c565b9050600073ffffffffffffffffffffffffffffffffffffffff168373ffffffffffffffffffffffffffffffffffffffff1614158015611c1c57508273ffffffffffffffffffffffffffffffffffffffff168173ffffffffffffffffffffffffffffffffffffffff1614155b8015611c2f5750611c2d8184610fd5565b155b15611c7157826040517fa9fbf51f000000000000000000000000000000000000000000000000000000008152600401611c68919061222a565b60405180910390fd5b8115611cd357838573ffffffffffffffffffffffffffffffffffffffff168273ffffffffffffffffffffffffffffffffffffffff167f8c5be1e5ebec7d5bd14f71427d1e84f3dd0314c0f7b2291e5b200ac8c7c3b92560405160405180910390a45b505b836004600085815260200190815260200160002060006101000a81548173ffffffffffffffffffffffffffffffffffffffff021916908373ffffffffffffffffffffffffffffffffffffffff16021790555050505050565b611d38838383611f44565b611dec57600073ffffffffffffffffffffffffffffffffffffffff168373ffffffffffffffffffffffffffffffffffffffff1603611dad57806040517f7e273289000000000000000000000000000000000000000000000000000000008152600401611da491906124f6565b60405180910390fd5b81816040517f177e802f000000000000000000000000000000000000000000000000000000008152600401611de3929190612ece565b60405180910390fd5b505050565b600080600090507a184f03e93ff9f4daa797ed6e38ed64bf6a1f0100000000000000008310611e4f577a184f03e93ff9f4daa797ed6e38ed64bf6a1f0100000000000000008381611e4557611e44612e9f565b5b0492506040810190505b6d04ee2d6d415b85acef81000000008310611e8c576d04ee2d6d415b85acef81000000008381611e8257611e81612e9f565b5b0492506020810190505b662386f26fc100008310611ebb57662386f26fc100008381611eb157611eb0612e9f565b5b0492506010810190505b6305f5e1008310611ee4576305f5e1008381611eda57611ed9612e9f565b5b0492506008810190505b6127108310611f09576127108381611eff57611efe612e9f565b5b0492506004810190505b60648310611f2c5760648381611f2257611f21612e9f565b5b0492506002810190505b600a8310611f3b576001810190505b80915050919050565b60008073ffffffffffffffffffffffffffffffffffffffff168373ffffffffffffffffffffffffffffffffffffffff1614158015611ffc57508273ffffffffffffffffffffffffffffffffffffffff168473ffffffffffffffffffffffffffffffffffffffff161480611fbd5750611fbc8484610fd5565b5b80611ffb57508273ffffffffffffffffffffffffffffffffffffffff16611fe3836111f4565b73ffffffffffffffffffffffffffffffffffffffff16145b5b90509392505050565b6000604051905090565b600080fd5b600080fd5b60007fffffffff0000000000000000000000000000000000000000000000000000000082169050919050565b61204e81612019565b811461205957600080fd5b50565b60008135905061206b81612045565b92915050565b6000602082840312156120875761208661200f565b5b60006120958482850161205c565b91505092915050565b60008115159050919050565b6120b38161209e565b82525050565b60006020820190506120ce60008301846120aa565b92915050565b600081519050919050565b600082825260208201905092915050565b60005b8381101561210e5780820151818401526020810190506120f3565b60008484015250505050565b6000601f19601f8301169050919050565b6000612136826120d4565b61214081856120df565b93506121508185602086016120f0565b6121598161211a565b840191505092915050565b6000602082019050818103600083015261217e818461212b565b905092915050565b6000819050919050565b61219981612186565b81146121a457600080fd5b50565b6000813590506121b681612190565b92915050565b6000602082840312156121d2576121d161200f565b5b60006121e0848285016121a7565b91505092915050565b600073ffffffffffffffffffffffffffffffffffffffff82169050919050565b6000612214826121e9565b9050919050565b61222481612209565b82525050565b600060208201905061223f600083018461221b565b92915050565b61224e81612209565b811461225957600080fd5b50565b60008135905061226b81612245565b92915050565b600080604083850312156122885761228761200f565b5b60006122968582860161225c565b92505060206122a7858286016121a7565b9150509250929050565b6000602082840312156122c7576122c661200f565b5b60006122d58482850161225c565b91505092915050565b6000806000606084860312156122f7576122f661200f565b5b60006123058682870161225c565b93505060206123168682870161225c565b9250506040612327868287016121a7565b9150509250925092565b600061ffff82169050919050565b61234881612331565b82525050565b6000602082019050612363600083018461233f565b92915050565b600080fd5b600080fd5b7f4e487b7100000000000000000000000000000000000000000000000000000000600052604160045260246000fd5b6123ab8261211a565b810181811067ffffffffffffffff821117156123ca576123c9612373565b5b80604052505050565b60006123dd612005565b90506123e982826123a2565b919050565b600067ffffffffffffffff82111561240957612408612373565b5b6124128261211a565b9050602081019050919050565b82818337600083830152505050565b600061244161243c846123ee565b6123d3565b90508281526020810184848401111561245d5761245c61236e565b5b61246884828561241f565b509392505050565b600082601f83011261248557612484612369565b5b813561249584826020860161242e565b91505092915050565b6000602082840312156124b4576124b361200f565b5b600082013567ffffffffffffffff8111156124d2576124d1612014565b5b6124de84828501612470565b91505092915050565b6124f081612186565b82525050565b600060208201905061250b60008301846124e7565b92915050565b61251a8161209e565b811461252557600080fd5b50565b60008135905061253781612511565b92915050565b600080604083850312156125545761255361200f565b5b60006125628582860161225c565b925050602061257385828601612528565b9150509250929050565b600067ffffffffffffffff82111561259857612597612373565b5b6125a18261211a565b9050602081019050919050565b60006125c16125bc8461257d565b6123d3565b9050828152602081018484840111156125dd576125dc61236e565b5b6125e884828561241f565b509392505050565b600082601f83011261260557612604612369565b5b81356126158482602086016125ae565b91505092915050565b600080600080608085870312156126385761263761200f565b5b60006126468782880161225c565b94505060206126578782880161225c565b9350506040612668878288016121a7565b925050606085013567ffffffffffffffff81111561268957612688612014565b5b612695878288016125f0565b91505092959194509250565b6000602082840312156126b7576126b661200f565b5b60006126c584828501612528565b91505092915050565b600080604083850312156126e5576126e461200f565b5b60006126f38582860161225c565b92505060206127048582860161225c565b9150509250929050565b7f4e487b7100000000000000000000000000000000000000000000000000000000600052602260045260246000fd5b6000600282049050600182168061275557607f821691505b6020821081036127685761276761270e565b5b50919050565b6000606082019050612783600083018661221b565b61279060208301856124e7565b61279d604083018461221b565b949350505050565b7f496e76616c696420626173655552490000000000000000000000000000000000600082015250565b60006127db600f836120df565b91506127e6826127a5565b602082019050919050565b6000602082019050818103600083015261280a816127ce565b9050919050565b60008190508160005260206000209050919050565b60006020601f8301049050919050565b600082821b905092915050565b6000600883026128737fffffffffffffffffffffffffffffffffffffffffffffffffffffffffffffffff82612836565b61287d8683612836565b95508019841693508086168417925050509392505050565b6000819050919050565b60006128ba6128b56128b084612186565b612895565b612186565b9050919050565b6000819050919050565b6128d48361289f565b6128e86128e0826128c1565b848454612843565b825550505050565b600090565b6128fd6128f0565b6129088184846128cb565b505050565b5b8181101561292c576129216000826128f5565b60018101905061290e565b5050565b601f8211156129715761294281612811565b61294b84612826565b8101602085101561295a578190505b61296e61296685612826565b83018261290d565b50505b505050565b600082821c905092915050565b600061299460001984600802612976565b1980831691505092915050565b60006129ad8383612983565b9150826002028217905092915050565b6129c6826120d4565b67ffffffffffffffff8111156129df576129de612373565b5b6129e9825461273d565b6129f4828285612930565b600060209050601f831160018114612a275760008415612a15578287015190505b612a1f85826129a1565b865550612a87565b601f198416612a3586612811565b60005b82811015612a5d57848901518255600182019150602085019450602081019050612a38565b86831015612a7a5784890151612a76601f891682612983565b8355505b6001600288020188555050505b505050505050565b6000604082019050612aa460008301856124e7565b612ab160208301846124e7565b9392505050565b7f4d617820737570706c7920726561636865640000000000000000000000000000600082015250565b6000612aee6012836120df565b9150612af982612ab8565b602082019050919050565b60006020820190508181036000830152612b1d81612ae1565b9050919050565b7f4e487b7100000000000000000000000000000000000000000000000000000000600052601160045260246000fd5b6000612b5e82612186565b91507fffffffffffffffffffffffffffffffffffffffffffffffffffffffffffffffff8203612b9057612b8f612b24565b5b600182019050919050565b7f496e76616c6964206d6f64657261746f72206164647265737300000000000000600082015250565b6000612bd16019836120df565b9150612bdc82612b9b565b602082019050919050565b60006020820190508181036000830152612c0081612bc4565b9050919050565b6000612c1282612331565b9150612c1d83612331565b9250828203905061ffff811115612c3757612c36612b24565b5b92915050565b6000612c4882612331565b9150612c5383612331565b9250828201905061ffff811115612c6d57612c6c612b24565b5b92915050565b7f4552433732314d657461646174613a2055524920717565727920666f72206e6f60008201527f6e6578697374656e7420746f6b656e0000000000000000000000000000000000602082015250565b6000612ccf602f836120df565b9150612cda82612c73565b604082019050919050565b60006020820190508181036000830152612cfe81612cc2565b9050919050565b600081905092915050565b6000612d1b826120d4565b612d258185612d05565b9350612d358185602086016120f0565b80840191505092915050565b7f2e6a736f6e000000000000000000000000000000000000000000000000000000600082015250565b6000612d77600583612d05565b9150612d8282612d41565b600582019050919050565b6000612d998285612d10565b9150612da58284612d10565b9150612db082612d6a565b91508190509392505050565b600081519050919050565b600082825260208201905092915050565b6000612de382612dbc565b612ded8185612dc7565b9350612dfd8185602086016120f0565b612e068161211a565b840191505092915050565b6000608082019050612e26600083018761221b565b612e33602083018661221b565b612e4060408301856124e7565b8181036060830152612e528184612dd8565b905095945050505050565b600081519050612e6c81612045565b92915050565b600060208284031215612e8857612e8761200f565b5b6000612e9684828501612e5d565b91505092915050565b7f4e487b7100000000000000000000000000000000000000000000000000000000600052601260045260246000fd5b6000604082019050612ee3600083018561221b565b612ef060208301846124e7565b939250505056fea264697066735822122051e2990347c6d608a0d18a50096a9480b381d930c135ef0424957a856809558b64736f6c634300081c0033",
  "linkReferences": {},
  "deployedLinkReferences": {}
}