{
  "_format": "hh-sol-artifact-1",
  "contractName": "Rug",
  "sourceName": "contracts/Rug.sol",
  "abi": [
    {
      "inputs": [
        {
          "internalType": "string",
          "name": "baseURI",
          "type": "string"
        }
      ],
      "stateMutability": "nonpayable",
      "type": "constructor"
    },
    {
      "inputs": [
        {
          "internalType": "address",
          "name": "sender",
          "type": "address"
        },
        {
          "internalType": "uint256",
          "name": "tokenId",
          "type": "uint256"
        },
        {
          "internalType": "address",
          "name": "owner",
          "type": "address"
        }
      ],
      "name": "ERC721IncorrectOwner",
      "type": "error"
    },
    {
      "inputs": [
        {
          "internalType": "address",
          "name": "operator",
          "type": "address"
        },
        {
          "internalType": "uint256",
          "name": "tokenId",
          "type": "uint256"
        }
      ],
      "name": "ERC721InsufficientApproval",
      "type": "error"
    },
    {
      "inputs": [
        {
          "internalType": "address",
          "name": "approver",
          "type": "address"
        }
      ],
      "name": "ERC721InvalidApprover",
      "type": "error"
    },
    {
      "inputs": [
        {
          "internalType": "address",
          "name": "operator",
          "type": "address"
        }
      ],
      "name": "ERC721InvalidOperator",
      "type": "error"
    },
    {
      "inputs": [
        {
          "internalType": "address",
          "name": "owner",
          "type": "address"
        }
      ],
      "name": "ERC721InvalidOwner",
      "type": "error"
    },
    {
      "inputs": [
        {
          "internalType": "address",
          "name": "receiver",
          "type": "address"
        }
      ],
      "name": "ERC721InvalidReceiver",
      "type": "error"
    },
    {
      "inputs": [
        {
          "internalType": "address",
          "name": "sender",
          "type": "address"
        }
      ],
      "name": "ERC721InvalidSender",
      "type": "error"
    },
    {
      "inputs": [
        {
          "internalType": "uint256",
          "name": "tokenId",
          "type": "uint256"
        }
      ],
      "name": "ERC721NonexistentToken",
      "type": "error"
    },
    {
      "inputs": [
        {
          "internalType": "address",
          "name": "owner",
          "type": "address"
        }
      ],
      "name": "OwnableInvalidOwner",
      "type": "error"
    },
    {
      "inputs": [
        {
          "internalType": "address",
          "name": "account",
          "type": "address"
        }
      ],
      "name": "OwnableUnauthorizedAccount",
      "type": "error"
    },
    {
      "anonymous": false,
      "inputs": [
        {
          "indexed": true,
          "internalType": "address",
          "name": "owner",
          "type": "address"
        },
        {
          "indexed": true,
          "internalType": "address",
          "name": "approved",
          "type": "address"
        },
        {
          "indexed": true,
          "internalType": "uint256",
          "name": "tokenId",
          "type": "uint256"
        }
      ],
      "name": "Approval",
      "type": "event"
    },
    {
      "anonymous": false,
      "inputs": [
        {
          "indexed": true,
          "internalType": "address",
          "name": "owner",
          "type": "address"
        },
        {
          "indexed": true,
          "internalType": "address",
          "name": "operator",
          "type": "address"
        },
        {
          "indexed": false,
          "internalType": "bool",
          "name": "approved",
          "type": "bool"
        }
      ],
      "name": "ApprovalForAll",
      "type": "event"
    },
    {
      "anonymous": false,
      "inputs": [
        {
          "indexed": false,
          "internalType": "uint256",
          "name": "fromTokenId",
          "type": "uint256"
        },
        {
          "indexed": false,
          "internalType": "uint256",
          "name": "toTokenId",
          "type": "uint256"
        }
      ],
      "name": "BatchMetadataUpdate",
      "type": "event"
    },
    {
      "anonymous": false,
      "inputs": [
        {
          "indexed": false,
          "internalType": "bool",
          "name": "isMaintaining",
          "type": "bool"
        }
      ],
      "name": "MaintenanceUpdated",
      "type": "event"
    },
    {
      "anonymous": false,
      "inputs": [
        {
          "indexed": false,
          "internalType": "uint256",
          "name": "newCap",
          "type": "uint256"
        }
      ],
      "name": "MaxCapUpdated",
      "type": "event"
    },
    {
      "anonymous": false,
      "inputs": [
        {
          "indexed": true,
          "internalType": "address",
          "name": "moderator",
          "type": "address"
        }
      ],
      "name": "ModeratorAdded",
      "type": "event"
    },
    {
      "anonymous": false,
      "inputs": [
        {
          "indexed": true,
          "internalType": "address",
          "name": "moderator",
          "type": "address"
        }
      ],
      "name": "ModeratorRemoved",
      "type": "event"
    },
    {
      "anonymous": false,
      "inputs": [
        {
          "indexed": true,
          "internalType": "address",
          "name": "previousOwner",
          "type": "address"
        },
        {
          "indexed": true,
          "internalType": "address",
          "name": "newOwner",
          "type": "address"
        }
      ],
      "name": "OwnershipTransferred",
      "type": "event"
    },
    {
      "anonymous": false,
      "inputs": [
        {
          "indexed": true,
          "internalType": "address",
          "name": "owner",
          "type": "address"
        },
        {
          "indexed": false,
          "internalType": "uint256",
          "name": "tokenId",
          "type": "uint256"
        }
      ],
      "name": "TokenMinted",
      "type": "event"
    },
    {
      "anonymous": false,
      "inputs": [
        {
          "indexed": true,
          "internalType": "address",
          "name": "from",
          "type": "address"
        },
        {
          "indexed": true,
          "internalType": "address",
          "name": "to",
          "type": "address"
        },
        {
          "indexed": true,
          "internalType": "uint256",
          "name": "tokenId",
          "type": "uint256"
        }
      ],
      "name": "Transfer",
      "type": "event"
    },
    {
      "inputs": [],
      "name": "MAX_CAP",
      "outputs": [
        {
          "internalType": "uint256",
          "name": "",
          "type": "uint256"
        }
      ],
      "stateMutability": "view",
      "type": "function"
    },
    {
      "inputs": [],
      "name": "START_TOKEN",
      "outputs": [
        {
          "internalType": "uint256",
          "name": "",
          "type": "uint256"
        }
      ],
      "stateMutability": "view",
      "type": "function"
    },
    {
      "inputs": [
        {
          "internalType": "address",
          "name": "_newModerator",
          "type": "address"
        }
      ],
      "name": "addModerator",
      "outputs": [],
      "stateMutability": "nonpayable",
      "type": "function"
    },
    {
      "inputs": [
        {
          "internalType": "address",
          "name": "to",
          "type": "address"
        },
        {
          "internalType": "uint256",
          "name": "tokenId",
          "type": "uint256"
        }
      ],
      "name": "approve",
      "outputs": [],
      "stateMutability": "nonpayable",
      "type": "function"
    },
    {
      "inputs": [
        {
          "internalType": "address",
          "name": "owner",
          "type": "address"
        }
      ],
      "name": "balanceOf",
      "outputs": [
        {
          "internalType": "uint256",
          "name": "",
          "type": "uint256"
        }
      ],
      "stateMutability": "view",
      "type": "function"
    },
    {
      "inputs": [
        {
          "internalType": "uint256",
          "name": "tokenId",
          "type": "uint256"
        }
      ],
      "name": "getApproved",
      "outputs": [
        {
          "internalType": "address",
          "name": "",
          "type": "address"
        }
      ],
      "stateMutability": "view",
      "type": "function"
    },
    {
      "inputs": [
        {
          "internalType": "address",
          "name": "owner",
          "type": "address"
        },
        {
          "internalType": "address",
          "name": "operator",
          "type": "address"
        }
      ],
      "name": "isApprovedForAll",
      "outputs": [
        {
          "internalType": "bool",
          "name": "",
          "type": "bool"
        }
      ],
      "stateMutability": "view",
      "type": "function"
    },
    {
      "inputs": [],
      "name": "isMaintaining",
      "outputs": [
        {
          "internalType": "bool",
          "name": "",
          "type": "bool"
        }
      ],
      "stateMutability": "view",
      "type": "function"
    },
    {
      "inputs": [],
      "name": "itemsMintedCount",
      "outputs": [
        {
          "internalType": "uint256",
          "name": "",
          "type": "uint256"
        }
      ],
      "stateMutability": "view",
      "type": "function"
    },
    {
      "inputs": [
        {
          "internalType": "address",
          "name": "_owner",
          "type": "address"
        }
      ],
      "name": "mintNextToken",
      "outputs": [
        {
          "internalType": "bool",
          "name": "",
          "type": "bool"
        }
      ],
      "stateMutability": "nonpayable",
      "type": "function"
    },
    {
      "inputs": [
        {
          "internalType": "address",
          "name": "",
          "type": "address"
        }
      ],
      "name": "moderators",
      "outputs": [
        {
          "internalType": "bool",
          "name": "",
          "type": "bool"
        }
      ],
      "stateMutability": "view",
      "type": "function"
    },
    {
      "inputs": [],
      "name": "name",
      "outputs": [
        {
          "internalType": "string",
          "name": "",
          "type": "string"
        }
      ],
      "stateMutability": "view",
      "type": "function"
    },
    {
      "inputs": [],
      "name": "owner",
      "outputs": [
        {
          "internalType": "address",
          "name": "",
          "type": "address"
        }
      ],
      "stateMutability": "view",
      "type": "function"
    },
    {
      "inputs": [
        {
          "internalType": "uint256",
          "name": "tokenId",
          "type": "uint256"
        }
      ],
      "name": "ownerOf",
      "outputs": [
        {
          "internalType": "address",
          "name": "",
          "type": "address"
        }
      ],
      "stateMutability": "view",
      "type": "function"
    },
    {
      "inputs": [
        {
          "internalType": "address",
          "name": "_moderator",
          "type": "address"
        }
      ],
      "name": "removeModerator",
      "outputs": [],
      "stateMutability": "nonpayable",
      "type": "function"
    },
    {
      "inputs": [],
      "name": "renounceOwnership",
      "outputs": [],
      "stateMutability": "nonpayable",
      "type": "function"
    },
    {
      "inputs": [
        {
          "internalType": "address",
          "name": "from",
          "type": "address"
        },
        {
          "internalType": "address",
          "name": "to",
          "type": "address"
        },
        {
          "internalType": "uint256",
          "name": "tokenId",
          "type": "uint256"
        }
      ],
      "name": "safeTransferFrom",
      "outputs": [],
      "stateMutability": "nonpayable",
      "type": "function"
    },
    {
      "inputs": [
        {
          "internalType": "address",
          "name": "from",
          "type": "address"
        },
        {
          "internalType": "address",
          "name": "to",
          "type": "address"
        },
        {
          "internalType": "uint256",
          "name": "tokenId",
          "type": "uint256"
        },
        {
          "internalType": "bytes",
          "name": "data",
          "type": "bytes"
        }
      ],
      "name": "safeTransferFrom",
      "outputs": [],
      "stateMutability": "nonpayable",
      "type": "function"
    },
    {
      "inputs": [
        {
          "internalType": "address",
          "name": "operator",
          "type": "address"
        },
        {
          "internalType": "bool",
          "name": "approved",
          "type": "bool"
        }
      ],
      "name": "setApprovalForAll",
      "outputs": [],
      "stateMutability": "nonpayable",
      "type": "function"
    },
    {
      "inputs": [
        {
          "internalType": "string",
          "name": "baseURI",
          "type": "string"
        }
      ],
      "name": "setBaseURI",
      "outputs": [],
      "stateMutability": "nonpayable",
      "type": "function"
    },
    {
      "inputs": [
        {
          "internalType": "bytes4",
          "name": "interfaceId",
          "type": "bytes4"
        }
      ],
      "name": "supportsInterface",
      "outputs": [
        {
          "internalType": "bool",
          "name": "",
          "type": "bool"
        }
      ],
      "stateMutability": "view",
      "type": "function"
    },
    {
      "inputs": [],
      "name": "symbol",
      "outputs": [
        {
          "internalType": "string",
          "name": "",
          "type": "string"
        }
      ],
      "stateMutability": "view",
      "type": "function"
    },
    {
      "inputs": [
        {
          "internalType": "uint256",
          "name": "tokenId",
          "type": "uint256"
        }
      ],
      "name": "tokenURI",
      "outputs": [
        {
          "internalType": "string",
          "name": "",
          "type": "string"
        }
      ],
      "stateMutability": "view",
      "type": "function"
    },
    {
      "inputs": [],
      "name": "totalModerators",
      "outputs": [
        {
          "internalType": "uint16",
          "name": "",
          "type": "uint16"
        }
      ],
      "stateMutability": "view",
      "type": "function"
    },
    {
      "inputs": [
        {
          "internalType": "address",
          "name": "from",
          "type": "address"
        },
        {
          "internalType": "address",
          "name": "to",
          "type": "address"
        },
        {
          "internalType": "uint256",
          "name": "tokenId",
          "type": "uint256"
        }
      ],
      "name": "transferFrom",
      "outputs": [],
      "stateMutability": "nonpayable",
      "type": "function"
    },
    {
      "inputs": [
        {
          "internalType": "address",
          "name": "newOwner",
          "type": "address"
        }
      ],
      "name": "transferOwnership",
      "outputs": [],
      "stateMutability": "nonpayable",
      "type": "function"
    },
    {
      "inputs": [
        {
          "internalType": "bool",
          "name": "_isMaintaining",
          "type": "bool"
        }
      ],
      "name": "updateMaintaining",
      "outputs": [],
      "stateMutability": "nonpayable",
      "type": "function"
    },
    {
      "inputs": [
        {
          "internalType": "uint256",
          "name": "_newCap",
          "type": "uint256"
        }
      ],
      "name": "updateMaxCap",
      "outputs": [],
      "stateMutability": "nonpayable",
      "type": "function"
    }
  ],
  "bytecode": "0x60806040526000600660146101000a81548161ffff021916908361ffff1602179055506000600860006101000a81548160ff0219169083151502179055506103e86009556000600a5534801561005457600080fd5b506040516139e43803806139e483398181016040528101906100769190610424565b336040518060400160405280600381526020017f52756700000000000000000000000000000000000000000000000000000000008152506040518060400160405280600381526020017f525547000000000000000000000000000000000000000000000000000000000081525081600090816100f2919061068e565b508060019081610102919061068e565b505050600073ffffffffffffffffffffffffffffffffffffffff168173ffffffffffffffffffffffffffffffffffffffff16036101775760006040517f1e4fbdf700000000000000000000000000000000000000000000000000000000815260040161016e91906107a1565b60405180910390fd5b610186816101e960201b60201c565b5060008151116101cb576040517f08c379a00000000000000000000000000000000000000000000000000000000081526004016101c290610819565b60405180910390fd5b80600b90816101da919061068e565b506001600a8190555050610839565b6000600660009054906101000a900473ffffffffffffffffffffffffffffffffffffffff16905081600660006101000a81548173ffffffffffffffffffffffffffffffffffffffff021916908373ffffffffffffffffffffffffffffffffffffffff1602179055508173ffffffffffffffffffffffffffffffffffffffff168173ffffffffffffffffffffffffffffffffffffffff167f8be0079c531659141344cd1fd0a4f28419497f9722a3daafe3b4186f6b6457e060405160405180910390a35050565b6000604051905090565b600080fd5b600080fd5b600080fd5b600080fd5b6000601f19601f8301169050919050565b7f4e487b7100000000000000000000000000000000000000000000000000000000600052604160045260246000fd5b610316826102cd565b810181811067ffffffffffffffff82111715610335576103346102de565b5b80604052505050565b60006103486102af565b9050610354828261030d565b919050565b600067ffffffffffffffff821115610374576103736102de565b5b61037d826102cd565b9050602081019050919050565b60005b838110156103a857808201518184015260208101905061038d565b60008484015250505050565b60006103c76103c284610359565b61033e565b9050828152602081018484840111156103e3576103e26102c8565b5b6103ee84828561038a565b509392505050565b600082601f83011261040b5761040a6102c3565b5b815161041b8482602086016103b4565b91505092915050565b60006020828403121561043a576104396102b9565b5b600082015167ffffffffffffffff811115610458576104576102be565b5b610464848285016103f6565b91505092915050565b600081519050919050565b7f4e487b7100000000000000000000000000000000000000000000000000000000600052602260045260246000fd5b600060028204905060018216806104bf57607f821691505b6020821081036104d2576104d1610478565b5b50919050565b60008190508160005260206000209050919050565b60006020601f8301049050919050565b600082821b905092915050565b60006008830261053a7fffffffffffffffffffffffffffffffffffffffffffffffffffffffffffffffff826104fd565b61054486836104fd565b95508019841693508086168417925050509392505050565b6000819050919050565b6000819050919050565b600061058b6105866105818461055c565b610566565b61055c565b9050919050565b6000819050919050565b6105a583610570565b6105b96105b182610592565b84845461050a565b825550505050565b600090565b6105ce6105c1565b6105d981848461059c565b505050565b5b818110156105fd576105f26000826105c6565b6001810190506105df565b5050565b601f82111561064257610613816104d8565b61061c846104ed565b8101602085101561062b578190505b61063f610637856104ed565b8301826105de565b50505b505050565b600082821c905092915050565b600061066560001984600802610647565b1980831691505092915050565b600061067e8383610654565b9150826002028217905092915050565b6106978261046d565b67ffffffffffffffff8111156106b0576106af6102de565b5b6106ba82546104a7565b6106c5828285610601565b600060209050601f8311600181146106f857600084156106e6578287015190505b6106f08582610672565b865550610758565b601f198416610706866104d8565b60005b8281101561072e57848901518255600182019150602085019450602081019050610709565b8683101561074b5784890151610747601f891682610654565b8355505b6001600288020188555050505b505050505050565b600073ffffffffffffffffffffffffffffffffffffffff82169050919050565b600061078b82610760565b9050919050565b61079b81610780565b82525050565b60006020820190506107b66000830184610792565b92915050565b600082825260208201905092915050565b7f496e76616c696420626173655552490000000000000000000000000000000000600082015250565b6000610803600f836107bc565b915061080e826107cd565b602082019050919050565b60006020820190508181036000830152610832816107f6565b9050919050565b61319c806108486000396000f3fe608060405234801561001057600080fd5b50600436106101c45760003560e01c8063869d785f116100f9578063d1d75a0211610097578063e81ba08011610071578063e81ba080146104f1578063e985e9c51461050d578063ee4e44161461053d578063f2fde38b1461055b576101c4565b8063d1d75a0214610499578063d32ca9d2146104b7578063d669e1d4146104d3576101c4565b8063a22cb465116100d3578063a22cb46514610415578063b532e4cb14610431578063b88d4fde1461044d578063c87b56dd14610469576101c4565b8063869d785f146103bd5780638da5cb5b146103d957806395d89b41146103f7576101c4565b80634efb023e11610166578063702b067c11610140578063702b067c1461033557806370a0823114610353578063715018a6146103835780637b0067741461038d576101c4565b80634efb023e146102cb57806355f804b3146102e95780636352211e14610305576101c4565b8063095ea7b3116101a2578063095ea7b31461024757806314d0f1ba1461026357806323b872dd1461029357806342842e0e146102af576101c4565b806301ffc9a7146101c957806306fdde03146101f9578063081812fc14610217575b600080fd5b6101e360048036038101906101de9190612208565b610577565b6040516101f09190612250565b60405180910390f35b610201610659565b60405161020e91906122fb565b60405180910390f35b610231600480360381019061022c9190612353565b6106eb565b60405161023e91906123c1565b60405180910390f35b610261600480360381019061025c9190612408565b610707565b005b61027d60048036038101906102789190612448565b61071d565b60405161028a9190612250565b60405180910390f35b6102ad60048036038101906102a89190612475565b61073d565b005b6102c960048036038101906102c49190612475565b61083f565b005b6102d361085f565b6040516102e091906124e5565b60405180910390f35b61030360048036038101906102fe9190612635565b610873565b005b61031f600480360381019061031a9190612353565b61090e565b60405161032c91906123c1565b60405180910390f35b61033d610920565b60405161034a919061268d565b60405180910390f35b61036d60048036038101906103689190612448565b610925565b60405161037a919061268d565b60405180910390f35b61038b6109df565b005b6103a760048036038101906103a29190612448565b6109f3565b6040516103b49190612250565b60405180910390f35b6103d760048036038101906103d29190612448565b610abc565b005b6103e1610c5e565b6040516103ee91906123c1565b60405180910390f35b6103ff610c88565b60405161040c91906122fb565b60405180910390f35b61042f600480360381019061042a91906126d4565b610d1a565b005b61044b60048036038101906104469190612448565b610d30565b005b610467600480360381019061046291906127b5565b610ed1565b005b610483600480360381019061047e9190612353565b610ef6565b60405161049091906122fb565b60405180910390f35b6104a1610fa7565b6040516104ae919061268d565b60405180910390f35b6104d160048036038101906104cc9190612838565b610fad565b005b6104db611009565b6040516104e8919061268d565b60405180910390f35b61050b60048036038101906105069190612353565b61100f565b005b61052760048036038101906105229190612865565b61116c565b6040516105349190612250565b60405180910390f35b610545611200565b6040516105529190612250565b60405180910390f35b61057560048036038101906105709190612448565b611213565b005b60007f80ac58cd000000000000000000000000000000000000000000000000000000007bffffffffffffffffffffffffffffffffffffffffffffffffffffffff1916827bffffffffffffffffffffffffffffffffffffffffffffffffffffffff1916148061064257507f5b5e139f000000000000000000000000000000000000000000000000000000007bffffffffffffffffffffffffffffffffffffffffffffffffffffffff1916827bffffffffffffffffffffffffffffffffffffffffffffffffffffffff1916145b80610652575061065182611299565b5b9050919050565b606060008054610668906128d4565b80601f0160208091040260200160405190810160405280929190818152602001828054610694906128d4565b80156106e15780601f106106b6576101008083540402835291602001916106e1565b820191906000526020600020905b8154815290600101906020018083116106c457829003601f168201915b5050505050905090565b60006106f682611303565b506107008261138b565b9050919050565b61071982826107146113c8565b6113d0565b5050565b60076020528060005260406000206000915054906101000a900460ff1681565b600073ffffffffffffffffffffffffffffffffffffffff168273ffffffffffffffffffffffffffffffffffffffff16036107af5760006040517f64a0ae920000000000000000000000000000000000000000000000000000000081526004016107a691906123c1565b60405180910390fd5b60006107c383836107be6113c8565b6113e2565b90508373ffffffffffffffffffffffffffffffffffffffff168173ffffffffffffffffffffffffffffffffffffffff1614610839578382826040517f64283d7b00000000000000000000000000000000000000000000000000000000815260040161083093929190612905565b60405180910390fd5b50505050565b61085a83838360405180602001604052806000815250610ed1565b505050565b600660149054906101000a900461ffff1681565b61087b6115fc565b60008151116108bf576040517f08c379a00000000000000000000000000000000000000000000000000000000081526004016108b690612988565b60405180910390fd5b80600b90816108ce9190612b54565b507f6bd5c950a8d8df17f772f5af37cb3655737899cbf903264b9795592da439661c6001600954604051610903929190612c26565b60405180910390a150565b600061091982611303565b9050919050565b600181565b60008073ffffffffffffffffffffffffffffffffffffffff168273ffffffffffffffffffffffffffffffffffffffff16036109985760006040517f89c62b6400000000000000000000000000000000000000000000000000000000815260040161098f91906123c1565b60405180910390fd5b600360008373ffffffffffffffffffffffffffffffffffffffff1673ffffffffffffffffffffffffffffffffffffffff168152602001908152602001600020549050919050565b6109e76115fc565b6109f16000611683565b565b6000600954600a5410610a3b576040517f08c379a0000000000000000000000000000000000000000000000000000000008152600401610a3290612c9b565b60405180910390fd5b600a6000815480929190610a4e90612cea565b91905055506000600a549050610a648382611749565b8273ffffffffffffffffffffffffffffffffffffffff167fb9144c96c86541f6fa89c9f2f02495cccf4b08cd6643e26d34ee00aa586558a882604051610aaa919061268d565b60405180910390a26001915050919050565b610ac46115fc565b600073ffffffffffffffffffffffffffffffffffffffff168173ffffffffffffffffffffffffffffffffffffffff1603610b33576040517f08c379a0000000000000000000000000000000000000000000000000000000008152600401610b2a90612d7e565b60405180910390fd5b600760008273ffffffffffffffffffffffffffffffffffffffff1673ffffffffffffffffffffffffffffffffffffffff16815260200190815260200160002060009054906101000a900460ff1615610c5b576000600760008373ffffffffffffffffffffffffffffffffffffffff1673ffffffffffffffffffffffffffffffffffffffff16815260200190815260200160002060006101000a81548160ff0219169083151502179055506001600660148282829054906101000a900461ffff16610bfd9190612d9e565b92506101000a81548161ffff021916908361ffff1602179055508073ffffffffffffffffffffffffffffffffffffffff167f7a9f1e23d5426b34819d173153d59084cc3578d5a129b80bb27df683ac6b227860405160405180910390a25b50565b6000600660009054906101000a900473ffffffffffffffffffffffffffffffffffffffff16905090565b606060018054610c97906128d4565b80601f0160208091040260200160405190810160405280929190818152602001828054610cc3906128d4565b8015610d105780601f10610ce557610100808354040283529160200191610d10565b820191906000526020600020905b815481529060010190602001808311610cf357829003601f168201915b5050505050905090565b610d2c610d256113c8565b8383611842565b5050565b610d386115fc565b600073ffffffffffffffffffffffffffffffffffffffff168173ffffffffffffffffffffffffffffffffffffffff1603610da7576040517f08c379a0000000000000000000000000000000000000000000000000000000008152600401610d9e90612d7e565b60405180910390fd5b600760008273ffffffffffffffffffffffffffffffffffffffff1673ffffffffffffffffffffffffffffffffffffffff16815260200190815260200160002060009054906101000a900460ff16610ece576001600760008373ffffffffffffffffffffffffffffffffffffffff1673ffffffffffffffffffffffffffffffffffffffff16815260200190815260200160002060006101000a81548160ff0219169083151502179055506001600660148282829054906101000a900461ffff16610e709190612dd4565b92506101000a81548161ffff021916908361ffff1602179055508073ffffffffffffffffffffffffffffffffffffffff167fd378ad41c1a753fd1ba9ec0fcd7970526c175b68545b4a02d6d15e7606fe359660405160405180910390a25b50565b610edc84848461073d565b610ef0610ee76113c8565b858585856119b1565b50505050565b6060600073ffffffffffffffffffffffffffffffffffffffff16610f1983611b62565b73ffffffffffffffffffffffffffffffffffffffff1603610f6f576040517f08c379a0000000000000000000000000000000000000000000000000000000008152600401610f6690612e7c565b60405180910390fd5b610f77611b9f565b610f8083611c31565b604051602001610f91929190612f24565b6040516020818303038152906040529050919050565b600a5481565b610fb56115fc565b80600860006101000a81548160ff0219169083151502179055507fb7b4d1364c10f8bcda04d589785b0aaeb7f8b526f36a6df41212357c4f8297e581604051610ffe9190612250565b60405180910390a150565b60095481565b611017610c5e565b73ffffffffffffffffffffffffffffffffffffffff166110356113c8565b73ffffffffffffffffffffffffffffffffffffffff1614806110a757506007600061105e6113c8565b73ffffffffffffffffffffffffffffffffffffffff1673ffffffffffffffffffffffffffffffffffffffff16815260200190815260200160002060009054906101000a900460ff165b6110e6576040517f08c379a00000000000000000000000000000000000000000000000000000000081526004016110dd90612f9f565b60405180910390fd5b600a5481101561112b576040517f08c379a00000000000000000000000000000000000000000000000000000000081526004016111229061300b565b60405180910390fd5b806009819055507f2a3c966bd81e284cb915dbe4ab904449e36efb61fa0bd2b2b2139fb524d5431581604051611161919061268d565b60405180910390a150565b6000600560008473ffffffffffffffffffffffffffffffffffffffff1673ffffffffffffffffffffffffffffffffffffffff16815260200190815260200160002060008373ffffffffffffffffffffffffffffffffffffffff1673ffffffffffffffffffffffffffffffffffffffff16815260200190815260200160002060009054906101000a900460ff16905092915050565b600860009054906101000a900460ff1681565b61121b6115fc565b600073ffffffffffffffffffffffffffffffffffffffff168173ffffffffffffffffffffffffffffffffffffffff160361128d5760006040517f1e4fbdf700000000000000000000000000000000000000000000000000000000815260040161128491906123c1565b60405180910390fd5b61129681611683565b50565b60007f01ffc9a7000000000000000000000000000000000000000000000000000000007bffffffffffffffffffffffffffffffffffffffffffffffffffffffff1916827bffffffffffffffffffffffffffffffffffffffffffffffffffffffff1916149050919050565b60008061130f83611b62565b9050600073ffffffffffffffffffffffffffffffffffffffff168173ffffffffffffffffffffffffffffffffffffffff160361138257826040517f7e273289000000000000000000000000000000000000000000000000000000008152600401611379919061268d565b60405180910390fd5b80915050919050565b60006004600083815260200190815260200160002060009054906101000a900473ffffffffffffffffffffffffffffffffffffffff169050919050565b600033905090565b6113dd8383836001611cff565b505050565b6000806113ee84611b62565b9050600073ffffffffffffffffffffffffffffffffffffffff168373ffffffffffffffffffffffffffffffffffffffff16146114305761142f818486611ec4565b5b600073ffffffffffffffffffffffffffffffffffffffff168173ffffffffffffffffffffffffffffffffffffffff16146114c157611472600085600080611cff565b6001600360008373ffffffffffffffffffffffffffffffffffffffff1673ffffffffffffffffffffffffffffffffffffffff168152602001908152602001600020600082825403925050819055505b600073ffffffffffffffffffffffffffffffffffffffff168573ffffffffffffffffffffffffffffffffffffffff1614611544576001600360008773ffffffffffffffffffffffffffffffffffffffff1673ffffffffffffffffffffffffffffffffffffffff168152602001908152602001600020600082825401925050819055505b846002600086815260200190815260200160002060006101000a81548173ffffffffffffffffffffffffffffffffffffffff021916908373ffffffffffffffffffffffffffffffffffffffff160217905550838573ffffffffffffffffffffffffffffffffffffffff168273ffffffffffffffffffffffffffffffffffffffff167fddf252ad1be2c89b69c2b068fc378daa952ba7f163c4a11628f55a4df523b3ef60405160405180910390a4809150509392505050565b6116046113c8565b73ffffffffffffffffffffffffffffffffffffffff16611622610c5e565b73ffffffffffffffffffffffffffffffffffffffff1614611681576116456113c8565b6040517f118cdaa700000000000000000000000000000000000000000000000000000000815260040161167891906123c1565b60405180910390fd5b565b6000600660009054906101000a900473ffffffffffffffffffffffffffffffffffffffff16905081600660006101000a81548173ffffffffffffffffffffffffffffffffffffffff021916908373ffffffffffffffffffffffffffffffffffffffff1602179055508173ffffffffffffffffffffffffffffffffffffffff168173ffffffffffffffffffffffffffffffffffffffff167f8be0079c531659141344cd1fd0a4f28419497f9722a3daafe3b4186f6b6457e060405160405180910390a35050565b600073ffffffffffffffffffffffffffffffffffffffff168273ffffffffffffffffffffffffffffffffffffffff16036117bb5760006040517f64a0ae920000000000000000000000000000000000000000000000000000000081526004016117b291906123c1565b60405180910390fd5b60006117c9838360006113e2565b9050600073ffffffffffffffffffffffffffffffffffffffff168173ffffffffffffffffffffffffffffffffffffffff161461183d5760006040517f73c6ac6e00000000000000000000000000000000000000000000000000000000815260040161183491906123c1565b60405180910390fd5b505050565b600073ffffffffffffffffffffffffffffffffffffffff168273ffffffffffffffffffffffffffffffffffffffff16036118b357816040517f5b08ba180000000000000000000000000000000000000000000000000000000081526004016118aa91906123c1565b60405180910390fd5b80600560008573ffffffffffffffffffffffffffffffffffffffff1673ffffffffffffffffffffffffffffffffffffffff16815260200190815260200160002060008473ffffffffffffffffffffffffffffffffffffffff1673ffffffffffffffffffffffffffffffffffffffff16815260200190815260200160002060006101000a81548160ff0219169083151502179055508173ffffffffffffffffffffffffffffffffffffffff168373ffffffffffffffffffffffffffffffffffffffff167f17307eab39ab6107e8899845ad3d59bd9653f200f220920489ca2b5937696c31836040516119a49190612250565b60405180910390a3505050565b60008373ffffffffffffffffffffffffffffffffffffffff163b1115611b5b578273ffffffffffffffffffffffffffffffffffffffff1663150b7a02868685856040518563ffffffff1660e01b8152600401611a109493929190613080565b6020604051808303816000875af1925050508015611a4c57506040513d601f19601f82011682018060405250810190611a4991906130e1565b60015b611ad0573d8060008114611a7c576040519150601f19603f3d011682016040523d82523d6000602084013e611a81565b606091505b506000815103611ac857836040517f64a0ae92000000000000000000000000000000000000000000000000000000008152600401611abf91906123c1565b60405180910390fd5b805181602001fd5b63150b7a0260e01b7bffffffffffffffffffffffffffffffffffffffffffffffffffffffff1916817bffffffffffffffffffffffffffffffffffffffffffffffffffffffff191614611b5957836040517f64a0ae92000000000000000000000000000000000000000000000000000000008152600401611b5091906123c1565b60405180910390fd5b505b5050505050565b60006002600083815260200190815260200160002060009054906101000a900473ffffffffffffffffffffffffffffffffffffffff169050919050565b6060600b8054611bae906128d4565b80601f0160208091040260200160405190810160405280929190818152602001828054611bda906128d4565b8015611c275780601f10611bfc57610100808354040283529160200191611c27565b820191906000526020600020905b815481529060010190602001808311611c0a57829003601f168201915b5050505050905090565b606060006001611c4084611f88565b01905060008167ffffffffffffffff811115611c5f57611c5e61250a565b5b6040519080825280601f01601f191660200182016040528015611c915781602001600182028036833780820191505090505b509050600082602001820190505b600115611cf4578080600190039150507f3031323334353637383961626364656600000000000000000000000000000000600a86061a8153600a8581611ce857611ce761310e565b5b04945060008503611c9f575b819350505050919050565b8080611d385750600073ffffffffffffffffffffffffffffffffffffffff168273ffffffffffffffffffffffffffffffffffffffff1614155b15611e6c576000611d4884611303565b9050600073ffffffffffffffffffffffffffffffffffffffff168373ffffffffffffffffffffffffffffffffffffffff1614158015611db357508273ffffffffffffffffffffffffffffffffffffffff168173ffffffffffffffffffffffffffffffffffffffff1614155b8015611dc65750611dc4818461116c565b155b15611e0857826040517fa9fbf51f000000000000000000000000000000000000000000000000000000008152600401611dff91906123c1565b60405180910390fd5b8115611e6a57838573ffffffffffffffffffffffffffffffffffffffff168273ffffffffffffffffffffffffffffffffffffffff167f8c5be1e5ebec7d5bd14f71427d1e84f3dd0314c0f7b2291e5b200ac8c7c3b92560405160405180910390a45b505b836004600085815260200190815260200160002060006101000a81548173ffffffffffffffffffffffffffffffffffffffff021916908373ffffffffffffffffffffffffffffffffffffffff16021790555050505050565b611ecf8383836120db565b611f8357600073ffffffffffffffffffffffffffffffffffffffff168373ffffffffffffffffffffffffffffffffffffffff1603611f4457806040517f7e273289000000000000000000000000000000000000000000000000000000008152600401611f3b919061268d565b60405180910390fd5b81816040517f177e802f000000000000000000000000000000000000000000000000000000008152600401611f7a92919061313d565b60405180910390fd5b505050565b600080600090507a184f03e93ff9f4daa797ed6e38ed64bf6a1f0100000000000000008310611fe6577a184f03e93ff9f4daa797ed6e38ed64bf6a1f0100000000000000008381611fdc57611fdb61310e565b5b0492506040810190505b6d04ee2d6d415b85acef81000000008310612023576d04ee2d6d415b85acef810000000083816120195761201861310e565b5b0492506020810190505b662386f26fc10000831061205257662386f26fc1000083816120485761204761310e565b5b0492506010810190505b6305f5e100831061207b576305f5e10083816120715761207061310e565b5b0492506008810190505b61271083106120a05761271083816120965761209561310e565b5b0492506004810190505b606483106120c357606483816120b9576120b861310e565b5b0492506002810190505b600a83106120d2576001810190505b80915050919050565b60008073ffffffffffffffffffffffffffffffffffffffff168373ffffffffffffffffffffffffffffffffffffffff161415801561219357508273ffffffffffffffffffffffffffffffffffffffff168473ffffffffffffffffffffffffffffffffffffffff1614806121545750612153848461116c565b5b8061219257508273ffffffffffffffffffffffffffffffffffffffff1661217a8361138b565b73ffffffffffffffffffffffffffffffffffffffff16145b5b90509392505050565b6000604051905090565b600080fd5b600080fd5b60007fffffffff0000000000000000000000000000000000000000000000000000000082169050919050565b6121e5816121b0565b81146121f057600080fd5b50565b600081359050612202816121dc565b92915050565b60006020828403121561221e5761221d6121a6565b5b600061222c848285016121f3565b91505092915050565b60008115159050919050565b61224a81612235565b82525050565b60006020820190506122656000830184612241565b92915050565b600081519050919050565b600082825260208201905092915050565b60005b838110156122a557808201518184015260208101905061228a565b60008484015250505050565b6000601f19601f8301169050919050565b60006122cd8261226b565b6122d78185612276565b93506122e7818560208601612287565b6122f0816122b1565b840191505092915050565b6000602082019050818103600083015261231581846122c2565b905092915050565b6000819050919050565b6123308161231d565b811461233b57600080fd5b50565b60008135905061234d81612327565b92915050565b600060208284031215612369576123686121a6565b5b60006123778482850161233e565b91505092915050565b600073ffffffffffffffffffffffffffffffffffffffff82169050919050565b60006123ab82612380565b9050919050565b6123bb816123a0565b82525050565b60006020820190506123d660008301846123b2565b92915050565b6123e5816123a0565b81146123f057600080fd5b50565b600081359050612402816123dc565b92915050565b6000806040838503121561241f5761241e6121a6565b5b600061242d858286016123f3565b925050602061243e8582860161233e565b9150509250929050565b60006020828403121561245e5761245d6121a6565b5b600061246c848285016123f3565b91505092915050565b60008060006060848603121561248e5761248d6121a6565b5b600061249c868287016123f3565b93505060206124ad868287016123f3565b92505060406124be8682870161233e565b9150509250925092565b600061ffff82169050919050565b6124df816124c8565b82525050565b60006020820190506124fa60008301846124d6565b92915050565b600080fd5b600080fd5b7f4e487b7100000000000000000000000000000000000000000000000000000000600052604160045260246000fd5b612542826122b1565b810181811067ffffffffffffffff821117156125615761256061250a565b5b80604052505050565b600061257461219c565b90506125808282612539565b919050565b600067ffffffffffffffff8211156125a05761259f61250a565b5b6125a9826122b1565b9050602081019050919050565b82818337600083830152505050565b60006125d86125d384612585565b61256a565b9050828152602081018484840111156125f4576125f3612505565b5b6125ff8482856125b6565b509392505050565b600082601f83011261261c5761261b612500565b5b813561262c8482602086016125c5565b91505092915050565b60006020828403121561264b5761264a6121a6565b5b600082013567ffffffffffffffff811115612669576126686121ab565b5b61267584828501612607565b91505092915050565b6126878161231d565b82525050565b60006020820190506126a2600083018461267e565b92915050565b6126b181612235565b81146126bc57600080fd5b50565b6000813590506126ce816126a8565b92915050565b600080604083850312156126eb576126ea6121a6565b5b60006126f9858286016123f3565b925050602061270a858286016126bf565b9150509250929050565b600067ffffffffffffffff82111561272f5761272e61250a565b5b612738826122b1565b9050602081019050919050565b600061275861275384612714565b61256a565b90508281526020810184848401111561277457612773612505565b5b61277f8482856125b6565b509392505050565b600082601f83011261279c5761279b612500565b5b81356127ac848260208601612745565b91505092915050565b600080600080608085870312156127cf576127ce6121a6565b5b60006127dd878288016123f3565b94505060206127ee878288016123f3565b93505060406127ff8782880161233e565b925050606085013567ffffffffffffffff8111156128205761281f6121ab565b5b61282c87828801612787565b91505092959194509250565b60006020828403121561284e5761284d6121a6565b5b600061285c848285016126bf565b91505092915050565b6000806040838503121561287c5761287b6121a6565b5b600061288a858286016123f3565b925050602061289b858286016123f3565b9150509250929050565b7f4e487b7100000000000000000000000000000000000000000000000000000000600052602260045260246000fd5b600060028204905060018216806128ec57607f821691505b6020821081036128ff576128fe6128a5565b5b50919050565b600060608201905061291a60008301866123b2565b612927602083018561267e565b61293460408301846123b2565b949350505050565b7f496e76616c696420626173655552490000000000000000000000000000000000600082015250565b6000612972600f83612276565b915061297d8261293c565b602082019050919050565b600060208201905081810360008301526129a181612965565b9050919050565b60008190508160005260206000209050919050565b60006020601f8301049050919050565b600082821b905092915050565b600060088302612a0a7fffffffffffffffffffffffffffffffffffffffffffffffffffffffffffffffff826129cd565b612a1486836129cd565b95508019841693508086168417925050509392505050565b6000819050919050565b6000612a51612a4c612a478461231d565b612a2c565b61231d565b9050919050565b6000819050919050565b612a6b83612a36565b612a7f612a7782612a58565b8484546129da565b825550505050565b600090565b612a94612a87565b612a9f818484612a62565b505050565b5b81811015612ac357612ab8600082612a8c565b600181019050612aa5565b5050565b601f821115612b0857612ad9816129a8565b612ae2846129bd565b81016020851015612af1578190505b612b05612afd856129bd565b830182612aa4565b50505b505050565b600082821c905092915050565b6000612b2b60001984600802612b0d565b1980831691505092915050565b6000612b448383612b1a565b9150826002028217905092915050565b612b5d8261226b565b67ffffffffffffffff811115612b7657612b7561250a565b5b612b8082546128d4565b612b8b828285612ac7565b600060209050601f831160018114612bbe5760008415612bac578287015190505b612bb68582612b38565b865550612c1e565b601f198416612bcc866129a8565b60005b82811015612bf457848901518255600182019150602085019450602081019050612bcf565b86831015612c115784890151612c0d601f891682612b1a565b8355505b6001600288020188555050505b505050505050565b6000604082019050612c3b600083018561267e565b612c48602083018461267e565b9392505050565b7f4d617820737570706c7920726561636865640000000000000000000000000000600082015250565b6000612c85601283612276565b9150612c9082612c4f565b602082019050919050565b60006020820190508181036000830152612cb481612c78565b9050919050565b7f4e487b7100000000000000000000000000000000000000000000000000000000600052601160045260246000fd5b6000612cf58261231d565b91507fffffffffffffffffffffffffffffffffffffffffffffffffffffffffffffffff8203612d2757612d26612cbb565b5b600182019050919050565b7f496e76616c6964206d6f64657261746f72206164647265737300000000000000600082015250565b6000612d68601983612276565b9150612d7382612d32565b602082019050919050565b60006020820190508181036000830152612d9781612d5b565b9050919050565b6000612da9826124c8565b9150612db4836124c8565b9250828203905061ffff811115612dce57612dcd612cbb565b5b92915050565b6000612ddf826124c8565b9150612dea836124c8565b9250828201905061ffff811115612e0457612e03612cbb565b5b92915050565b7f4552433732314d657461646174613a2055524920717565727920666f72206e6f60008201527f6e6578697374656e7420746f6b656e0000000000000000000000000000000000602082015250565b6000612e66602f83612276565b9150612e7182612e0a565b604082019050919050565b60006020820190508181036000830152612e9581612e59565b9050919050565b600081905092915050565b6000612eb28261226b565b612ebc8185612e9c565b9350612ecc818560208601612287565b80840191505092915050565b7f2e6a736f6e000000000000000000000000000000000000000000000000000000600082015250565b6000612f0e600583612e9c565b9150612f1982612ed8565b600582019050919050565b6000612f308285612ea7565b9150612f3c8284612ea7565b9150612f4782612f01565b91508190509392505050565b7f5265737472696374656420416363657373000000000000000000000000000000600082015250565b6000612f89601183612276565b9150612f9482612f53565b602082019050919050565b60006020820190508181036000830152612fb881612f7c565b9050919050565b7f4e657720636170206d757374206265203e3d206d696e74656420636f756e7400600082015250565b6000612ff5601f83612276565b915061300082612fbf565b602082019050919050565b6000602082019050818103600083015261302481612fe8565b9050919050565b600081519050919050565b600082825260208201905092915050565b60006130528261302b565b61305c8185613036565b935061306c818560208601612287565b613075816122b1565b840191505092915050565b600060808201905061309560008301876123b2565b6130a260208301866123b2565b6130af604083018561267e565b81810360608301526130c18184613047565b905095945050505050565b6000815190506130db816121dc565b92915050565b6000602082840312156130f7576130f66121a6565b5b6000613105848285016130cc565b91505092915050565b7f4e487b7100000000000000000000000000000000000000000000000000000000600052601260045260246000fd5b600060408201905061315260008301856123b2565b61315f602083018461267e565b939250505056fea2646970667358221220bdefea6c9d6b44e614e6f03ef3a476bc43ccb7d82cb5af8d7b65d4b9429f421064736f6c634300081c0033",
  "linkReferences": {},
  "deployedLinkReferences": {}
}