{
  "_format": "hh-sol-artifact-1",
  "contractName": "Zor",
  "sourceName": "contracts/Zor.sol",
  "abi": [
    {
      "inputs": [
        {
          "internalType": "address",
          "name": "initialOwner",
          "type": "address"
        },
        {
          "internalType": "uint256",
          "name": "initialSupply",
          "type": "uint256"
        }
      ],
      "stateMutability": "nonpayable",
      "type": "constructor"
    },
    {
      "inputs": [
        {
          "internalType": "address",
          "name": "spender",
          "type": "address"
        },
        {
          "internalType": "uint256",
          "name": "allowance",
          "type": "uint256"
        },
        {
          "internalType": "uint256",
          "name": "needed",
          "type": "uint256"
        }
      ],
      "name": "ERC20InsufficientAllowance",
      "type": "error"
    },
    {
      "inputs": [
        {
          "internalType": "address",
          "name": "sender",
          "type": "address"
        },
        {
          "internalType": "uint256",
          "name": "balance",
          "type": "uint256"
        },
        {
          "internalType": "uint256",
          "name": "needed",
          "type": "uint256"
        }
      ],
      "name": "ERC20InsufficientBalance",
      "type": "error"
    },
    {
      "inputs": [
        {
          "internalType": "address",
          "name": "approver",
          "type": "address"
        }
      ],
      "name": "ERC20InvalidApprover",
      "type": "error"
    },
    {
      "inputs": [
        {
          "internalType": "address",
          "name": "receiver",
          "type": "address"
        }
      ],
      "name": "ERC20InvalidReceiver",
      "type": "error"
    },
    {
      "inputs": [
        {
          "internalType": "address",
          "name": "sender",
          "type": "address"
        }
      ],
      "name": "ERC20InvalidSender",
      "type": "error"
    },
    {
      "inputs": [
        {
          "internalType": "address",
          "name": "spender",
          "type": "address"
        }
      ],
      "name": "ERC20InvalidSpender",
      "type": "error"
    },
    {
      "inputs": [
        {
          "internalType": "address",
          "name": "owner",
          "type": "address"
        }
      ],
      "name": "OwnableInvalidOwner",
      "type": "error"
    },
    {
      "inputs": [
        {
          "internalType": "address",
          "name": "account",
          "type": "address"
        }
      ],
      "name": "OwnableUnauthorizedAccount",
      "type": "error"
    },
    {
      "anonymous": false,
      "inputs": [
        {
          "indexed": true,
          "internalType": "address",
          "name": "owner",
          "type": "address"
        },
        {
          "indexed": true,
          "internalType": "address",
          "name": "spender",
          "type": "address"
        },
        {
          "indexed": false,
          "internalType": "uint256",
          "name": "value",
          "type": "uint256"
        }
      ],
      "name": "Approval",
      "type": "event"
    },
    {
      "anonymous": false,
      "inputs": [
        {
          "indexed": true,
          "internalType": "address",
          "name": "previousOwner",
          "type": "address"
        },
        {
          "indexed": true,
          "internalType": "address",
          "name": "newOwner",
          "type": "address"
        }
      ],
      "name": "OwnershipTransferred",
      "type": "event"
    },
    {
      "anonymous": false,
      "inputs": [
        {
          "indexed": true,
          "internalType": "address",
          "name": "from",
          "type": "address"
        },
        {
          "indexed": true,
          "internalType": "address",
          "name": "to",
          "type": "address"
        },
        {
          "indexed": false,
          "internalType": "uint256",
          "name": "value",
          "type": "uint256"
        }
      ],
      "name": "Transfer",
      "type": "event"
    },
    {
      "inputs": [
        {
          "internalType": "address",
          "name": "_miner",
          "type": "address"
        }
      ],
      "name": "addMiner",
      "outputs": [],
      "stateMutability": "nonpayable",
      "type": "function"
    },
    {
      "inputs": [
        {
          "internalType": "address",
          "name": "owner",
          "type": "address"
        },
        {
          "internalType": "address",
          "name": "spender",
          "type": "address"
        }
      ],
      "name": "allowance",
      "outputs": [
        {
          "internalType": "uint256",
          "name": "",
          "type": "uint256"
        }
      ],
      "stateMutability": "view",
      "type": "function"
    },
    {
      "inputs": [
        {
          "internalType": "address",
          "name": "spender",
          "type": "address"
        },
        {
          "internalType": "uint256",
          "name": "value",
          "type": "uint256"
        }
      ],
      "name": "approve",
      "outputs": [
        {
          "internalType": "bool",
          "name": "",
          "type": "bool"
        }
      ],
      "stateMutability": "nonpayable",
      "type": "function"
    },
    {
      "inputs": [
        {
          "internalType": "address",
          "name": "account",
          "type": "address"
        }
      ],
      "name": "balanceOf",
      "outputs": [
        {
          "internalType": "uint256",
          "name": "",
          "type": "uint256"
        }
      ],
      "stateMutability": "view",
      "type": "function"
    },
    {
      "inputs": [],
      "name": "decimals",
      "outputs": [
        {
          "internalType": "uint8",
          "name": "",
          "type": "uint8"
        }
      ],
      "stateMutability": "view",
      "type": "function"
    },
    {
      "inputs": [
        {
          "internalType": "address",
          "name": "",
          "type": "address"
        }
      ],
      "name": "miners",
      "outputs": [
        {
          "internalType": "bool",
          "name": "",
          "type": "bool"
        }
      ],
      "stateMutability": "view",
      "type": "function"
    },
    {
      "inputs": [
        {
          "internalType": "address",
          "name": "_to",
          "type": "address"
        },
        {
          "internalType": "uint256",
          "name": "_amount",
          "type": "uint256"
        }
      ],
      "name": "mint",
      "outputs": [],
      "stateMutability": "nonpayable",
      "type": "function"
    },
    {
      "inputs": [],
      "name": "name",
      "outputs": [
        {
          "internalType": "string",
          "name": "",
          "type": "string"
        }
      ],
      "stateMutability": "view",
      "type": "function"
    },
    {
      "inputs": [],
      "name": "owner",
      "outputs": [
        {
          "internalType": "address",
          "name": "",
          "type": "address"
        }
      ],
      "stateMutability": "view",
      "type": "function"
    },
    {
      "inputs": [
        {
          "internalType": "address",
          "name": "_miner",
          "type": "address"
        }
      ],
      "name": "removeMiner",
      "outputs": [],
      "stateMutability": "nonpayable",
      "type": "function"
    },
    {
      "inputs": [],
      "name": "renounceOwnership",
      "outputs": [],
      "stateMutability": "nonpayable",
      "type": "function"
    },
    {
      "inputs": [],
      "name": "symbol",
      "outputs": [
        {
          "internalType": "string",
          "name": "",
          "type": "string"
        }
      ],
      "stateMutability": "view",
      "type": "function"
    },
    {
      "inputs": [],
      "name": "totalSupply",
      "outputs": [
        {
          "internalType": "uint256",
          "name": "",
          "type": "uint256"
        }
      ],
      "stateMutability": "view",
      "type": "function"
    },
    {
      "inputs": [
        {
          "internalType": "address",
          "name": "to",
          "type": "address"
        },
        {
          "internalType": "uint256",
          "name": "value",
          "type": "uint256"
        }
      ],
      "name": "transfer",
      "outputs": [
        {
          "internalType": "bool",
          "name": "",
          "type": "bool"
        }
      ],
      "stateMutability": "nonpayable",
      "type": "function"
    },
    {
      "inputs": [
        {
          "internalType": "address",
          "name": "from",
          "type": "address"
        },
        {
          "internalType": "address",
          "name": "to",
          "type": "address"
        },
        {
          "internalType": "uint256",
          "name": "value",
          "type": "uint256"
        }
      ],
      "name": "transferFrom",
      "outputs": [
        {
          "internalType": "bool",
          "name": "",
          "type": "bool"
        }
      ],
      "stateMutability": "nonpayable",
      "type": "function"
    },
    {
      "inputs": [
        {
          "internalType": "address",
          "name": "newOwner",
          "type": "address"
        }
      ],
      "name": "transferOwnership",
      "outputs": [],
      "stateMutability": "nonpayable",
      "type": "function"
    }
  ],
  "bytecode": "0x608060405234801561001057600080fd5b50604051611fbf380380611fbf83398181016040528101906100329190610593565b816040518060400160405280600381526020017f5a6f7200000000000000000000000000000000000000000000000000000000008152506040518060400160405280600381526020017f5a4f52000000000000000000000000000000000000000000000000000000000081525081600390816100ae9190610819565b5080600490816100be9190610819565b505050600073ffffffffffffffffffffffffffffffffffffffff168173ffffffffffffffffffffffffffffffffffffffff16036101335760006040517f1e4fbdf700000000000000000000000000000000000000000000000000000000815260040161012a91906108fa565b60405180910390fd5b6101428161017e60201b60201c565b506101778261015561024460201b60201c565b600a6101619190610a84565b8361016c9190610acf565b61024d60201b60201c565b5050610ba6565b6000600560009054906101000a900473ffffffffffffffffffffffffffffffffffffffff16905081600560006101000a81548173ffffffffffffffffffffffffffffffffffffffff021916908373ffffffffffffffffffffffffffffffffffffffff1602179055508173ffffffffffffffffffffffffffffffffffffffff168173ffffffffffffffffffffffffffffffffffffffff167f8be0079c531659141344cd1fd0a4f28419497f9722a3daafe3b4186f6b6457e060405160405180910390a35050565b60006012905090565b600073ffffffffffffffffffffffffffffffffffffffff168273ffffffffffffffffffffffffffffffffffffffff16036102bf5760006040517fec442f050000000000000000000000000000000000000000000000000000000081526004016102b691906108fa565b60405180910390fd5b6102d1600083836102d560201b60201c565b5050565b600073ffffffffffffffffffffffffffffffffffffffff168373ffffffffffffffffffffffffffffffffffffffff160361032757806002600082825461031b9190610b11565b925050819055506103fa565b60008060008573ffffffffffffffffffffffffffffffffffffffff1673ffffffffffffffffffffffffffffffffffffffff168152602001908152602001600020549050818110156103b3578381836040517fe450d38c0000000000000000000000000000000000000000000000000000000081526004016103aa93929190610b54565b60405180910390fd5b8181036000808673ffffffffffffffffffffffffffffffffffffffff1673ffffffffffffffffffffffffffffffffffffffff16815260200190815260200160002081905550505b600073ffffffffffffffffffffffffffffffffffffffff168273ffffffffffffffffffffffffffffffffffffffff16036104435780600260008282540392505081905550610490565b806000808473ffffffffffffffffffffffffffffffffffffffff1673ffffffffffffffffffffffffffffffffffffffff168152602001908152602001600020600082825401925050819055505b8173ffffffffffffffffffffffffffffffffffffffff168373ffffffffffffffffffffffffffffffffffffffff167fddf252ad1be2c89b69c2b068fc378daa952ba7f163c4a11628f55a4df523b3ef836040516104ed9190610b8b565b60405180910390a3505050565b600080fd5b600073ffffffffffffffffffffffffffffffffffffffff82169050919050565b600061052a826104ff565b9050919050565b61053a8161051f565b811461054557600080fd5b50565b60008151905061055781610531565b92915050565b6000819050919050565b6105708161055d565b811461057b57600080fd5b50565b60008151905061058d81610567565b92915050565b600080604083850312156105aa576105a96104fa565b5b60006105b885828601610548565b92505060206105c98582860161057e565b9150509250929050565b600081519050919050565b7f4e487b7100000000000000000000000000000000000000000000000000000000600052604160045260246000fd5b7f4e487b7100000000000000000000000000000000000000000000000000000000600052602260045260246000fd5b6000600282049050600182168061065457607f821691505b6020821081036106675761066661060d565b5b50919050565b60008190508160005260206000209050919050565b60006020601f8301049050919050565b600082821b905092915050565b6000600883026106cf7fffffffffffffffffffffffffffffffffffffffffffffffffffffffffffffffff82610692565b6106d98683610692565b95508019841693508086168417925050509392505050565b6000819050919050565b600061071661071161070c8461055d565b6106f1565b61055d565b9050919050565b6000819050919050565b610730836106fb565b61074461073c8261071d565b84845461069f565b825550505050565b600090565b61075961074c565b610764818484610727565b505050565b5b818110156107885761077d600082610751565b60018101905061076a565b5050565b601f8211156107cd5761079e8161066d565b6107a784610682565b810160208510156107b6578190505b6107ca6107c285610682565b830182610769565b50505b505050565b600082821c905092915050565b60006107f0600019846008026107d2565b1980831691505092915050565b600061080983836107df565b9150826002028217905092915050565b610822826105d3565b67ffffffffffffffff81111561083b5761083a6105de565b5b610845825461063c565b61085082828561078c565b600060209050601f8311600181146108835760008415610871578287015190505b61087b85826107fd565b8655506108e3565b601f1984166108918661066d565b60005b828110156108b957848901518255600182019150602085019450602081019050610894565b868310156108d657848901516108d2601f8916826107df565b8355505b6001600288020188555050505b505050505050565b6108f48161051f565b82525050565b600060208201905061090f60008301846108eb565b92915050565b7f4e487b7100000000000000000000000000000000000000000000000000000000600052601160045260246000fd5b60008160011c9050919050565b6000808291508390505b600185111561099b5780860481111561097757610976610915565b5b60018516156109865780820291505b808102905061099485610944565b945061095b565b94509492505050565b6000826109b45760019050610a70565b816109c25760009050610a70565b81600181146109d857600281146109e257610a11565b6001915050610a70565b60ff8411156109f4576109f3610915565b5b8360020a915084821115610a0b57610a0a610915565b5b50610a70565b5060208310610133831016604e8410600b8410161715610a465782820a905083811115610a4157610a40610915565b5b610a70565b610a538484846001610951565b92509050818404811115610a6a57610a69610915565b5b81810290505b9392505050565b600060ff82169050919050565b6000610a8f8261055d565b9150610a9a83610a77565b9250610ac77fffffffffffffffffffffffffffffffffffffffffffffffffffffffffffffffff84846109a4565b905092915050565b6000610ada8261055d565b9150610ae58361055d565b9250828202610af38161055d565b91508282048414831517610b0a57610b09610915565b5b5092915050565b6000610b1c8261055d565b9150610b278361055d565b9250828201905080821115610b3f57610b3e610915565b5b92915050565b610b4e8161055d565b82525050565b6000606082019050610b6960008301866108eb565b610b766020830185610b45565b610b836040830184610b45565b949350505050565b6000602082019050610ba06000830184610b45565b92915050565b61140a80610bb56000396000f3fe608060405234801561001057600080fd5b50600436106101005760003560e01c806370a0823111610097578063a9059cbb11610066578063a9059cbb1461029d578063dd62ed3e146102cd578063f2fde38b146102fd578063f3982e5e1461031957610100565b806370a0823114610227578063715018a6146102575780638da5cb5b1461026157806395d89b411461027f57610100565b806323b872dd116100d357806323b872dd1461018d578063313ce567146101bd57806340c10f19146101db578063648ec7b9146101f757610100565b806306fdde0314610105578063095ea7b314610123578063102425901461015357806318160ddd1461016f575b600080fd5b61010d610335565b60405161011a9190610ff2565b60405180910390f35b61013d600480360381019061013891906110ad565b6103c7565b60405161014a9190611108565b60405180910390f35b61016d60048036038101906101689190611123565b6103ea565b005b61017761044d565b604051610184919061115f565b60405180910390f35b6101a760048036038101906101a2919061117a565b610457565b6040516101b49190611108565b60405180910390f35b6101c5610486565b6040516101d291906111e9565b60405180910390f35b6101f560048036038101906101f091906110ad565b61048f565b005b610211600480360381019061020c9190611123565b610529565b60405161021e9190611108565b60405180910390f35b610241600480360381019061023c9190611123565b610549565b60405161024e919061115f565b60405180910390f35b61025f610591565b005b6102696105a5565b6040516102769190611213565b60405180910390f35b6102876105cf565b6040516102949190610ff2565b60405180910390f35b6102b760048036038101906102b291906110ad565b610661565b6040516102c49190611108565b60405180910390f35b6102e760048036038101906102e2919061122e565b610684565b6040516102f4919061115f565b60405180910390f35b61031760048036038101906103129190611123565b61070b565b005b610333600480360381019061032e9190611123565b610791565b005b6060600380546103449061129d565b80601f01602080910402602001604051908101604052809291908181526020018280546103709061129d565b80156103bd5780601f10610392576101008083540402835291602001916103bd565b820191906000526020600020905b8154815290600101906020018083116103a057829003601f168201915b5050505050905090565b6000806103d26107f4565b90506103df8185856107fc565b600191505092915050565b6103f261080e565b6000600660008373ffffffffffffffffffffffffffffffffffffffff1673ffffffffffffffffffffffffffffffffffffffff16815260200190815260200160002060006101000a81548160ff02191690831515021790555050565b6000600254905090565b6000806104626107f4565b905061046f858285610895565b61047a85858561092a565b60019150509392505050565b60006012905090565b600660003373ffffffffffffffffffffffffffffffffffffffff1673ffffffffffffffffffffffffffffffffffffffff16815260200190815260200160002060009054906101000a900460ff1661051b576040517f08c379a00000000000000000000000000000000000000000000000000000000081526004016105129061131a565b60405180910390fd5b6105258282610a1e565b5050565b60066020528060005260406000206000915054906101000a900460ff1681565b60008060008373ffffffffffffffffffffffffffffffffffffffff1673ffffffffffffffffffffffffffffffffffffffff168152602001908152602001600020549050919050565b61059961080e565b6105a36000610aa0565b565b6000600560009054906101000a900473ffffffffffffffffffffffffffffffffffffffff16905090565b6060600480546105de9061129d565b80601f016020809104026020016040519081016040528092919081815260200182805461060a9061129d565b80156106575780601f1061062c57610100808354040283529160200191610657565b820191906000526020600020905b81548152906001019060200180831161063a57829003601f168201915b5050505050905090565b60008061066c6107f4565b905061067981858561092a565b600191505092915050565b6000600160008473ffffffffffffffffffffffffffffffffffffffff1673ffffffffffffffffffffffffffffffffffffffff16815260200190815260200160002060008373ffffffffffffffffffffffffffffffffffffffff1673ffffffffffffffffffffffffffffffffffffffff16815260200190815260200160002054905092915050565b61071361080e565b600073ffffffffffffffffffffffffffffffffffffffff168173ffffffffffffffffffffffffffffffffffffffff16036107855760006040517f1e4fbdf700000000000000000000000000000000000000000000000000000000815260040161077c9190611213565b60405180910390fd5b61078e81610aa0565b50565b61079961080e565b6001600660008373ffffffffffffffffffffffffffffffffffffffff1673ffffffffffffffffffffffffffffffffffffffff16815260200190815260200160002060006101000a81548160ff02191690831515021790555050565b600033905090565b6108098383836001610b66565b505050565b6108166107f4565b73ffffffffffffffffffffffffffffffffffffffff166108346105a5565b73ffffffffffffffffffffffffffffffffffffffff1614610893576108576107f4565b6040517f118cdaa700000000000000000000000000000000000000000000000000000000815260040161088a9190611213565b60405180910390fd5b565b60006108a18484610684565b90507fffffffffffffffffffffffffffffffffffffffffffffffffffffffffffffffff8110156109245781811015610914578281836040517ffb8f41b200000000000000000000000000000000000000000000000000000000815260040161090b9392919061133a565b60405180910390fd5b61092384848484036000610b66565b5b50505050565b600073ffffffffffffffffffffffffffffffffffffffff168373ffffffffffffffffffffffffffffffffffffffff160361099c5760006040517f96c6fd1e0000000000000000000000000000000000000000000000000000000081526004016109939190611213565b60405180910390fd5b600073ffffffffffffffffffffffffffffffffffffffff168273ffffffffffffffffffffffffffffffffffffffff1603610a0e5760006040517fec442f05000000000000000000000000000000000000000000000000000000008152600401610a059190611213565b60405180910390fd5b610a19838383610d3d565b505050565b600073ffffffffffffffffffffffffffffffffffffffff168273ffffffffffffffffffffffffffffffffffffffff1603610a905760006040517fec442f05000000000000000000000000000000000000000000000000000000008152600401610a879190611213565b60405180910390fd5b610a9c60008383610d3d565b5050565b6000600560009054906101000a900473ffffffffffffffffffffffffffffffffffffffff16905081600560006101000a81548173ffffffffffffffffffffffffffffffffffffffff021916908373ffffffffffffffffffffffffffffffffffffffff1602179055508173ffffffffffffffffffffffffffffffffffffffff168173ffffffffffffffffffffffffffffffffffffffff167f8be0079c531659141344cd1fd0a4f28419497f9722a3daafe3b4186f6b6457e060405160405180910390a35050565b600073ffffffffffffffffffffffffffffffffffffffff168473ffffffffffffffffffffffffffffffffffffffff1603610bd85760006040517fe602df05000000000000000000000000000000000000000000000000000000008152600401610bcf9190611213565b60405180910390fd5b600073ffffffffffffffffffffffffffffffffffffffff168373ffffffffffffffffffffffffffffffffffffffff1603610c4a5760006040517f94280d62000000000000000000000000000000000000000000000000000000008152600401610c419190611213565b60405180910390fd5b81600160008673ffffffffffffffffffffffffffffffffffffffff1673ffffffffffffffffffffffffffffffffffffffff16815260200190815260200160002060008573ffffffffffffffffffffffffffffffffffffffff1673ffffffffffffffffffffffffffffffffffffffff168152602001908152602001600020819055508015610d37578273ffffffffffffffffffffffffffffffffffffffff168473ffffffffffffffffffffffffffffffffffffffff167f8c5be1e5ebec7d5bd14f71427d1e84f3dd0314c0f7b2291e5b200ac8c7c3b92584604051610d2e919061115f565b60405180910390a35b50505050565b600073ffffffffffffffffffffffffffffffffffffffff168373ffffffffffffffffffffffffffffffffffffffff1603610d8f578060026000828254610d8391906113a0565b92505081905550610e62565b60008060008573ffffffffffffffffffffffffffffffffffffffff1673ffffffffffffffffffffffffffffffffffffffff16815260200190815260200160002054905081811015610e1b578381836040517fe450d38c000000000000000000000000000000000000000000000000000000008152600401610e129392919061133a565b60405180910390fd5b8181036000808673ffffffffffffffffffffffffffffffffffffffff1673ffffffffffffffffffffffffffffffffffffffff16815260200190815260200160002081905550505b600073ffffffffffffffffffffffffffffffffffffffff168273ffffffffffffffffffffffffffffffffffffffff1603610eab5780600260008282540392505081905550610ef8565b806000808473ffffffffffffffffffffffffffffffffffffffff1673ffffffffffffffffffffffffffffffffffffffff168152602001908152602001600020600082825401925050819055505b8173ffffffffffffffffffffffffffffffffffffffff168373ffffffffffffffffffffffffffffffffffffffff167fddf252ad1be2c89b69c2b068fc378daa952ba7f163c4a11628f55a4df523b3ef83604051610f55919061115f565b60405180910390a3505050565b600081519050919050565b600082825260208201905092915050565b60005b83811015610f9c578082015181840152602081019050610f81565b60008484015250505050565b6000601f19601f8301169050919050565b6000610fc482610f62565b610fce8185610f6d565b9350610fde818560208601610f7e565b610fe781610fa8565b840191505092915050565b6000602082019050818103600083015261100c8184610fb9565b905092915050565b600080fd5b600073ffffffffffffffffffffffffffffffffffffffff82169050919050565b600061104482611019565b9050919050565b61105481611039565b811461105f57600080fd5b50565b6000813590506110718161104b565b92915050565b6000819050919050565b61108a81611077565b811461109557600080fd5b50565b6000813590506110a781611081565b92915050565b600080604083850312156110c4576110c3611014565b5b60006110d285828601611062565b92505060206110e385828601611098565b9150509250929050565b60008115159050919050565b611102816110ed565b82525050565b600060208201905061111d60008301846110f9565b92915050565b60006020828403121561113957611138611014565b5b600061114784828501611062565b91505092915050565b61115981611077565b82525050565b60006020820190506111746000830184611150565b92915050565b60008060006060848603121561119357611192611014565b5b60006111a186828701611062565b93505060206111b286828701611062565b92505060406111c386828701611098565b9150509250925092565b600060ff82169050919050565b6111e3816111cd565b82525050565b60006020820190506111fe60008301846111da565b92915050565b61120d81611039565b82525050565b60006020820190506112286000830184611204565b92915050565b6000806040838503121561124557611244611014565b5b600061125385828601611062565b925050602061126485828601611062565b9150509250929050565b7f4e487b7100000000000000000000000000000000000000000000000000000000600052602260045260246000fd5b600060028204905060018216806112b557607f821691505b6020821081036112c8576112c761126e565b5b50919050565b7f4e6f7420617574686f72697a656420746f206d696e7400000000000000000000600082015250565b6000611304601683610f6d565b915061130f826112ce565b602082019050919050565b60006020820190508181036000830152611333816112f7565b9050919050565b600060608201905061134f6000830186611204565b61135c6020830185611150565b6113696040830184611150565b949350505050565b7f4e487b7100000000000000000000000000000000000000000000000000000000600052601160045260246000fd5b60006113ab82611077565b91506113b683611077565b92508282019050808211156113ce576113cd611371565b5b9291505056fea264697066735822122086cdc2154769958bf37bc31b4091025858bb262fa40cac138d74cbf461e7af7f64736f6c634300081c0033",
  "linkReferences": {},
  "deployedLinkReferences": {}
}